:020000040800F2
:100000009004002045010008092400080B24000882
:100010000F24000813240008172400080000000023
:100020000000000000000000000000001B24000889
:100030001D240008000000001F24000821240008DF
:100040005F0100085F0100085F0100085F01000810
:100050005F0100085F0100085F0100085F01000800
:100060005F0100085F0100085F0100085F010008F0
:100070005F0100085F0100085F0100085F010008E0
:100080005F0100085F0100085F0100085F010008D0
:100090005F0100085F0100085F0100085F010008C0
:1000A0005F0100085F0100085F0100085F010008B0
:1000B0005F0100085F0100082F3300085F0100089E
:1000C0005F0100085F0100085F0100085F01000890
:1000D0005F010008673700085F010008552300082A
:1000E0005F0100085F0100085F0100085F01000870
:1000F0005F0100085F0100085F0100085F01000860
:100100005F0100085F0100085F0100085F0100084F
:100110005F0100085F0100085F0100085F0100083F
:100120005F0100085F0100085F0100085F0100082F
:10013000DFF80CD003F0B2FE004800470D230008A2
:10014000900400200648804706480047FEE7FEE787
:10015000FEE7FEE7FEE7FEE7FEE7FEE7FEE7FEE777
:1001600047020008310100080CB500200190009002
:100170006C48006840F480306A49086000BF6948F4
:10018000006800F4003000900198401C0190009835
:1001900018B90198B0F5A06FF1D16248006800F479
:1001A000003010B10120009001E000200090009884
:1001B000012843D15C48006840F010005A490860AB
:1001C0000846006820F0030008600846006840F018
:1001D0000200086053484068524948600846406839
:1001E00048600846406840F48060486008464068BF
:1001F00020F47C1048600846406840F4E8104860ED
:100200000846006840F08070086000BF45480068FC
:1002100000F000700028F9D04248406820F0030048
:10022000404948600846406840F00200486000BF0E
:100230003C48406800F00C000828F9D10CBD10B50E
:10024000FFF792FF10BD10B53648006840F001007E
:1002500034490860084640683449084031494860DC
:1002600008460068324908402E4908600846006880
:1002700020F4802008600846406820F4FE004860B2
:100280004FF41F008860FFF7DAFF4FF00060294944
:10029000086010BD10B5002100200022214B5B68D2
:1002A00003F00C0121B1042906D0082928D107E068
:1002B000214B224C236027E01F4B204C236023E07E
:1002C000184B5B6803F47010164B5B6803F48032C4
:1002D000022303EB904022B9194B4343174C236090
:1002E0000DE0104B5B6803F4003323B1144B434320
:1002F000124C236003E0104B4343104C236003E097
:100300000D4B0E4C236000BF00BF064B5B68C3F370
:1003100003130C4CE15C094B1B68CB40074C23607A
:1003200010BD000000100240002002400000FFF855
:10033000FFFFF6FE08ED00E000127A00000000204A
:1003400000093D000400002031490143314A116099
:10035000704770B5002100230F22C47804B32D4CE0
:10036000246804F4E064C4F5E064210AC1F10403E4
:10037000CA40447804FA03F1847814402143090107
:10038000254C0678A155047804F01F050124AC40E3
:1003900005786D11AD0005F1E025C5F8004109E0D3
:1003A000047804F01F050124AC401C4D067876113A
:1003B00045F8264070BD1A4A0A400243154B1B1FE0
:1003C0001A60704739B1134A121D12680243114B6B
:1003D0001B1D1A6006E00F4A121D126882430D4B66
:1003E0001B1D1A607047042808D14FF0E0210969ED
:1003F00041F004014FF0E022116107E04FF0E021ED
:10040000096921F004014FF0E022116170470000FA
:100410000000FA050CED00E000E400E080E100E0FF
:1004200080FFFF1F01460020FE4A106800F03800E0
:10043000084310607047FB49096821F00801F94A38
:10044000116011460968014311607047F549096858
:1004500021F01001F34A116011460968014311604F
:100460007047F148EF494860F04848607047EE48EF
:10047000EC494860ED4848607047EA48006940F040
:100480008000E84908617047E648006940F0800054
:10049000E449086170470420E249C96801F001019C
:1004A00009B101200EE0DF49C96801F0040109B17A
:1004B000022007E0DB49C96801F0100109B10320FF
:1004C00000E00420704700B502460423FFF7E3FF75
:1004D000034603E0FFF7DFFF0346521E012B01D165
:1004E000002AF7D102B90523184600BD30B50446ED
:1004F00004254FF43020FFF7E6FF0546042D17D101
:10050000C848006940F00200C649086108464461D5
:10051000006940F0400008614FF43020FFF7D3FF3E
:100520000546C048006941F6FD710840BD490861B3
:10053000284630BD10B504244FF43020FFF7C3FF28
:100540000446042C16D1B748006940F00400B549B0
:1005500008610846006940F0400008614FF430200F
:10056000FFF7B1FF0446AF48006941F6FB71084050
:10057000AC490861204610BD00B502460423FFF7D0
:100580008AFF034603E0FFF786FF0346521E012B56
:1005900001D1002AF7D102B90523184600BD10B5D4
:1005A00004244FF43020FFF7E7FF0446042C16D153
:1005B0009C48006940F004009A49086108460069B7
:1005C00040F0400008614FF43020FFF7D5FF0446AB
:1005D0009448006941F6FB71084092490861204641
:1005E00010BD00208F49C96901F0020109B1012045
:1005F00000E00020704730B5A5250424FFF7F1FF87
:1006000000B100254FF43020FFF75DFF0446042CB5
:100610003AD18548834988608448886008460069E3
:1006200040F0200008610846006940F04000086181
:100630004FF43020FFF747FF0446042C1BD17948C4
:10064000006941F6DF710840764908610846006993
:1006500040F01000086176480580E002FFF733FFA4
:100660000446052C10D06F48006941F6EF71084030
:100670006C49086108E0052C06D06A48006941F61B
:10068000EF71084067490861204630BD78B50646DD
:100690000C46042500200090E802FFF714FF0546F1
:1006A000042D24D15F48006940F001005D490861D4
:1006B0003480E802FFF707FF0546042D10D1B01C77
:1006C0000090200C00990880E802FFF7FCFE054628
:1006D0005448006941F6FE7108405249086106E03D
:1006E0005048006941F6FE7108404E4908612846AD
:1006F00078BD70B504460D460426F002FFF7E3FE10
:100700000646042E11D14748006940F001004549D2
:1007100008612580F002FFF7D6FE064641480069D1
:1007200041F6FE7108403F490861304670BD70B522
:1007300005460E460424E002FFF7C5FE0446042CDD
:1007400017D13948374988603848886008460069B9
:1007500040F0100008612E80E002FFF7B4FE04466E
:10076000052C06D02F48006941F6EF7108402D494D
:100770000861204670BD2DE9F04304464FF6FF7630
:100780003746B046B1460425E443E6B2C4F3072732
:10079000C4F307484FEA1469E802FFF794FE0546E0
:1007A000042D49D120481F498860204888600846A8
:1007B000006940F010000861FF2E06D01C48083088
:1007C0000680E802FFF77FFE0546042D08D1FF2FC3
:1007D00006D017480A300780E802FFF774FE054686
:1007E000042D0AD1B8F1FF0F07D011480C30A0F842
:1007F0000080E802FFF767FE0546042D0AD1B9F133
:10080000FF0F07D00A480E30A0F80090E802FFF76B
:100810005AFE0546052D0FD00248006941F6EF71DA
:10082000084007E00020024023016745AB89EFCD77
:1008300000F8FF1F664908612846BDE8F08330B51F
:10084000054604244FF43020FFF73DFE0446042CF7
:1008500041D160485E4988605F4888600846006909
:1008600040F0200008610846006940F0400008613F
:100870004FF43020FFF727FE0446042C22D15448C1
:10088000006941F6DF710840514908610846006976
:1008900040F0100008611DB100205049088002E0BE
:1008A000A5204E4908804FF43020FFF70CFE044687
:1008B000052C10D04648006941F6EF7108404449C4
:1008C000086108E0052C06D04148006941F6DF7157
:1008D00008403F490861204630BDF0B505460E4648
:1008E000174604243B483A4988603B488860E00248
:1008F000FFF7E9FD0446042C19D13548006940F0A2
:1009000010003349086147F0F80030432843334969
:10091000891C0880E002FFF7D6FD0446052C06D0AE
:100920002B48006941F6EF710840294908612046CB
:10093000F0BD2748C069800870472548006A7047A5
:1009400000202349096801F0200109B1012000E0DD
:100950000020704729B11E4A126902431C4B1A61DC
:1009600004E01B4A12698243194B1A617047014621
:100970000020012908D1164AD26902F001020AB109
:10098000012008E0002006E0114AD2680A400AB1BE
:10099000012000E0002070470D49C8607047042026
:1009A0000B49C96801F0010109B101200EE00849B5
:1009B000C96801F0040109B1022007E00449C968CF
:1009C00001F0100109B1032000E00420704700008D
:1009D0000020024023016745AB89EFCD00F8FF1FDF
:1009E00010B50446CE48844208D10121042000F00D
:1009F00031FB0021042000F02DFB46E0C948844271
:100A000008D10121082000F025FB0021082000F07A
:100A100021FB3AE0C448844208D10121102000F0B3
:100A200019FB0021102000F015FB2EE0BF48844286
:100A300008D10121202000F00DFB0021202000F032
:100A400009FB22E0BA48844208D10121402000F08D
:100A500001FB0021402000F0FDFA16E0B548844279
:100A600008D10121802000F0F5FA0021802000F05B
:100A7000F1FA0AE0B048844207D10121801500F064
:100A8000E9FA0021A01500F0E5FA10BD10B501212A
:100A9000084600F0DFFA0021012000F0DBFA10BD6B
:100AA0002DE9F04102460025002600200023002405
:100AB000002791F803C00CF00F0591F803C00CF06B
:100AC000100CBCF1000F03D091F802C04CEA0505F0
:100AD00091F800C0BCF1000F31D0146800202BE069
:100AE0004FF0010C0CFA00F3B1F800C00CEA030659
:100AF0009E4220D183004FF00F0C0CFA03F7BC4349
:100B000005FA03FC4CEA040491F803C0BCF1280F79
:100B100006D14FF0010C0CFA00FCC2F814C00AE038
:100B200091F803C0BCF1480F05D14FF0010C0CFA4D
:100B300000FCC2F810C0401C0828D1D31460B1F8E2
:100B400000C0BCF1FF0F34DD546800202EE000F13E
:100B5000080C4FF0010808FA0CF3B1F800C00CEAD9
:100B600003069E4221D183004FF00F0C0CFA03F7CD
:100B7000BC4305FA03FC4CEA040491F803C0BCF141
:100B8000280F05D100F1080C08FA0CF8C2F81480FF
:100B900091F803C0BCF1480F07D100F1080C4FF0E9
:100BA000010808FA0CF8C2F81080401C0828CED3BF
:100BB0005460BDE8F0814FF6FF7101800221817021
:100BC0000421C17070470246002093680B400BB1AE
:100BD000012000E0002070470146886880B270471D
:100BE00002460020D3680B400BB1012000E000203A
:100BF00070470146C86880B2704701617047C2689B
:100C00004A40C2607047416170470AB1016100E02B
:100C100041617047C16070474FF480320A4382617E
:100C20008161826182698269704702460020434B7C
:100C300018684FF68073184040EA021008433F4B93
:100C4000186070473E49C8617047F0B50A460023F6
:100C500000240021002500F00046B6F1004F02D12B
:100C6000364EF16901E0354E7168C0F3034583B239
:100C700000F44016B6F5401F08D121F070612F4EE8
:100C8000766826F070662D4F7E6012E000F48016C4
:100C9000B6F5801F06D1032606FA05F4A14341F0FC
:100CA000706106E0460D360103FA06F6B14341F0E5
:100CB000706122B1460D360103FA06F6314300F0A9
:100CC0000046B6F1004F02D11C4EF16101E01B4E0F
:100CD0007160F0BD30B500228B071C0F0F2303FAA3
:100CE00004F2164B08338C1053F824309343134C02
:100CF00008348D1044F8253023468C1053F82430E6
:100D00008C07240F00FA04F423430C4C08348D1094
:100D100044F8253030BD0A49DC31086070470000D6
:100D200000080140000C0140001001400014014087
:100D300000180140001C014000200140000001405B
:100D400000002042DF48006840F00100DD490860F3
:100D500008464068DC490840DA49486008460068AF
:100D6000DA490840D74908600846006820F4802026
:100D700008600846406820F4FE0048604FF41F00F9
:100D800088607047CF49096821F48031CD4A1160ED
:100D90001146096821F480211160B0F5803F03D02D
:100DA000B0F5802F0ED106E0C649096841F48031C4
:100DB000C44A116007E0C349096841F4A021C14A4F
:100DC000116000E000BF00BF704710B5014600226F
:100DD000002300204A11012A02D1BA4C236806E000
:100DE000022A02D1B74C236A01E0B64C636A01F0D3
:100DF0001F02012494401C400CB1012000E000209F
:100E000010BD38B5002000900024002500BF31201F
:100E1000FFF7DBFF05460098401C00900098B0F5F6
:100E2000A06F01D0002DF2D03120FFF7CEFF08B126
:100E3000012400E00024204638BD01460020A14ADC
:100E4000106820F0F80040EAC10010607047A04927
:100E500008607047024600209A4B586820F47C10C6
:100E600042EA01031843974B586070479849086657
:100E7000704701460020934A506820F00300084361
:100E8000506070478F48406800F00C007047014682
:100E900000208C4A506820F0F000084350607047F2
:100EA00001460020874A506820F4E0600843506003
:100EB000704701460020834A506820F4605040EAA1
:100EC000C1005060704729B17E4A527A02437D4B7F
:100ED0005A7204E07B4A527A82437A4B5A727047C4
:100EE0007B49D8310860704701460020754A506838
:100EF00020F440400843506070470021714A20327E
:100F00001170704A82F82010012802D004280AD1FA
:100F100004E001216B4A2032117005E00521694A85
:100F20002032117000E000BF00BF704769490860BF
:100F300070476449096A0143624A11627047654912
:100F400044390860704730B5002100220024002396
:100F50005C4D6D6805F00C0121B1042905D008290C
:100F600023D105E05C4D056022E05B4D05601FE08C
:100F7000544D6D6805F47012524D6D6805F480345F
:100F8000022505EB92421CB9544D554305600BE018
:100F90004C4D6D6805F400351DB1504D554305604D
:100FA00002E04D4D5543056002E04B4D056000BF2A
:100FB00000BF444D6D6805F0F0010909484D6B5CB8
:100FC0000568DD4045603F4D6D6805F4E061090A44
:100FD000434D6B5C4568DD4085603A4D6D6805F4B6
:100FE0006051C90A3E4D6B5C4568DD40C560354DBA
:100FF0006D6805F44041890B3A4D6B5CC568B5FBE3
:10100000F3F5056130BD29B12E4A526902432D4BDB
:101010005A6104E02B4A526982432A4B5A61704755
:1010200029B1284A92690243264B9A6104E0254A75
:1010300092698243234B9A61704729B1214AD26950
:101040000243204BDA6104E01E4AD26982431D4B01
:10105000DA61704729B11B4AD2680243194BDA6042
:1010600004E0184AD2688243164BDA60704729B10F
:10107000144A12690243134B1A6104E0114A1269BF
:101080008243104B1A61704712494039086070471B
:101090000F49C86470470B49C87170470948406AD6
:1010A00040F0807007494862704701460020054AB9
:1010B00092680A400AB1012000E00020704701490F
:1010C00088727047001002400000FFF8FFFFF6FE34
:1010D000000042428004424200127A0000093D00B2
:1010E000140000202400002010B50446FE4884426D
:1010F00008D10121C014FFF7ADFF0021E014FFF774
:10110000A9FFC4E0B4F1804F08D101210846FFF7E0
:10111000AEFF00210120FFF7AAFFB8E0F3488442A8
:1011200008D101210220FFF7A2FF00210220FFF7D2
:101130009EFFACE0EE48844208D101210420FFF775
:1011400096FF00210420FFF792FFA0E0E9488442C7
:1011500008D101210820FFF78AFF00210820FFF7AE
:1011600086FF94E0E448844208D101211020FFF773
:101170007EFF00211020FFF77AFF88E0DF488442DD
:1011800008D101212020FFF772FF00212020FFF766
:101190006EFF7CE0DA48844208D101214014FFF759
:1011A00059FF00216014FFF755FF70E0D5488442D5
:1011B00009D10121C804FFF74DFF00214FF40020A1
:1011C000FFF748FF63E0D048844209D101210805B8
:1011D000FFF740FF00214FF48010FFF73BFF56E080
:1011E000CA48844209D101214805FFF733FF002195
:1011F0004FF40010FFF72EFF49E0C548844208D1A4
:1012000001214020FFF733FF00214020FFF72FFF8F
:101210003DE0C048844208D101218020FFF727FF2C
:1012200000218020FFF723FF31E0BB48844208D132
:1012300001218015FFF71BFF0021A015FFF717FF05
:1012400025E0B648844209D101210804FFF702FFD6
:1012500000214FF48030FFF7FDFE18E0B0488442D3
:1012600009D101214804FFF7F5FE00214FF40030B9
:10127000FFF7F0FE0BE0AB48844208D1012188045F
:10128000FFF7E8FE00214FF48020FFF7E3FE10BDDA
:1012900000220288944B98420ED0994B98420BD072
:1012A000B0F1804F08D0914B984205D0904B9842B6
:1012B00002D0904B984204D14FF68F731A404B885E
:1012C0001A438D4B984207D08C4B984204D04FF66E
:1012D000FF431A40CB881A4302808B8883850B8892
:1012E0000385814B98420BD0854B984208D08B4B9D
:1012F000984205D08A4B984202D08A4B984201D13D
:101300000B7A038601238382704770B50024002284
:101310000023058C4FF6FE7635400584028C8388C9
:10132000048B4FF68F752C40B51E2C400D882C4336
:10133000751E2A400D892A434D882A436A4DA842CA
:101340000BD06F4DA84208D0744DA84205D0744D03
:10135000A84202D0734DA84213D14FF6F7752A4028
:101360004D892A434FF6FB752A408D882A434FF654
:10137000FF652B404FF6FF552B408D892B43CD89C0
:101380002B4383800483CD888586028470BD70B52D
:10139000002400220023058C4FF6EF7635400584AB
:1013A000028C8388048B48F6FF752C404FF6FF456E
:1013B0002C400D884FF6FF7606EA05252C434FF6A4
:1013C000DF752A400D8906EA05152A434D8806EA8D
:1013D00005152A43444DA84202D0494DA8421DD1CB
:1013E0004FF67F752A404D894FF6FF7606EA0515C0
:1013F0002A434FF6BF752A408D8806EA05152A4311
:101400004FF6FF352B404FF2FF752B408D8906EAD2
:1014100085052B43CD8906EA85052B43838004830C
:10142000CD880587028470BD70B50024002200239A
:10143000058C4FF6FF6635400584028C8388848BCB
:101440004FF68F752C404FF6FC752C400D882C43C1
:101450004FF6FF552A400D894FF6FF7606EA05251F
:101460002A434D8806EA05252A431F4DA84202D08B
:10147000234DA8421DD14FF2FF752A404D894FF6EA
:10148000FF7606EA05252A434FF6FF352A408D8868
:1014900006EA05252A434EF6FF752B404DF6FF75EB
:1014A0002B408D8906EA05152B43CD8906EA0515E3
:1014B0002B4383808483CD888587028470BD70B57B
:1014C000002200230024058C4EF6FF76354005846B
:1014D000038C8488828B48F6FF752A404FF6FF45BF
:1014E0002A400D8820E00000002C0140000400404C
:1014F00000080040000C00400010004000140040B4
:1015000000340140004C01400050014000540140B3
:1015100000180040001C0040002000400040014036
:1015200000440140004801404FF6FF7606EA0525D9
:101530002A434DF6FF752B400D8906EA05352B43EE
:101540004D8806EA05352B43FA4DA84202D0FA4DE4
:10155000A84208D14BF6FF752C408D894FF6FF76D7
:1015600006EA85152C4384808283CD88A0F84050FC
:10157000038470BD828B4FF2FF331A408283828BCB
:101580004FF6FF7303EA01231A4382837047F0B5D5
:101590000C461546002200210026078C4EF6FF7CE3
:1015A00007EA0C070784828B018C4FF6FF7707EA66
:1015B000043640F6FF473A404FF6FF7707EA052723
:1015C0003A434FF6FF7707EA03373A43D94FB84219
:1015D0000ED0D94FB8420BD0B0F1804F08D0D74FC2
:1015E000B84205D0D64FB84202D0D64FB84206D145
:1015F0004DF6FF77394046F48057394305E047F60A
:10160000FF57394044F48057394382830184F0BD49
:10161000828B4FF6F3731A408283828B0A43828354
:101620007047F0B50C461546002200210026078CB5
:101630004FF6FF6C07EA0C070784828B018C4FF68C
:10164000FF7707EA04264FF60C773A404FF6FF770C
:1016500007EA03172F433A43B64FB8420ED0B64FAE
:10166000B8420BD0B0F1804F08D0B44FB84205D08B
:10167000B34FB84202D0B34FB84206D14FF6FF572E
:10168000394046F48077394305E04FF2FF5739403F
:1016900044F48077394382830184F0BD028B4FF29A
:1016A000FF331A400283028B4FF6FF7303EA0123D4
:1016B0001A4302837047F0B50C46154600220021FC
:1016C0000026078C4FF6EF7C07EA0C070784028B95
:1016D000018C4FF6FF7707EA041640F6FF473A40C1
:1016E0004FF6FF7707EA03373A434FF6FF7707EAEB
:1016F00005273A438F4FB8420ED08F4FB8420BD0D8
:10170000B0F1804F08D08D4FB84205D08C4FB84211
:1017100002D08C4FB84206D14FF6DF77394046F001
:101720001007394305E04FF65F77394044F0100762
:10173000394302830184F0BD028B4FF6F3731A40E4
:101740000283028B0A4302837047F0B50C461546AC
:1017500000220021068C4FF6FE773E400684028B65
:10176000018C4FF60C7632407E1C06EA03162E439F
:101770003243704EB0420ED06F4EB0420BD0B0F13B
:10178000804F08D06D4EB04205D06D4EB04202D0B1
:101790006C4EB04206D14FF6FD76314044F0010662
:1017A000314305E04FF6F576314044F00106314310
:1017B00002830184F0BD70B505460C465D48854244
:1017C0000ED05D4885420BD0B5F1804F08D05B4804
:1017D000854205D05A48854202D05A48854200D1F8
:1017E00000E000BF208850B92389A288618828467C
:1017F000FFF7ABFFE1882846FFF79EFF25E0208832
:1018000004280AD12389A28861882846FFF753FF5C
:10181000E1882846FFF742FF17E0208808280AD110
:101820002389A28861882846FFF7FBFEE1882846C5
:10183000FFF7EEFE09E02389A28861882846FFF7BA
:10184000A6FEE1882846FFF795FE70BD2DE9F04120
:1018500005460C4600260127608808B9022600E0EC
:101860000026A088012801D1022700E00127208856
:10187000A0B92389A28861882846FFF766FFE1881E
:101880002846FFF759FF23893A4631462846FFF795
:1018900012FFE1882846FFF701FF13E02389A288A1
:1018A00061882846FFF707FFE1882846FFF7F6FE24
:1018B00023893A4631462846FFF747FFE188284604
:1018C000FFF73AFFBDE8F0810A884B881A438B88FE
:1018D0001A43CB881A430B891A434B891A438B89C5
:1018E0001A43A0F8442070474FF6FF718180002111
:1018F0000180C180418001727047002101804180D8
:101900008180C180018141818181C1817047002135
:1019100001804180012181800021C18001817047C7
:101920000021018041808180C180018141818181CC
:1019300070470000002C01400034014000040040CA
:1019400000080040000C004021B1028842F0010272
:10195000028004E002884FF6FE731A40028070474E
:1019600031B1B0F8442042F40042A0F8442005E030
:10197000B0F84420C2F30E02A0F8442070471AB118
:1019800083890B43838102E083898B438381704782
:101990008182704741EA0203A0F8483070471AB1CB
:1019A00083890B43838102E083898B438381704762
:1019B00001894FF6F8721140018170470A460021F3
:1019C00001894FF68F73194011430181704730B57B
:1019D00004460D4629462046FFF7F0FF208940F0D7
:1019E0000700208130BD2DE9F04104460D46164622
:1019F0001F46602D06D13B46012231462046FFF7A7
:101A00005AFE05E03B46012231462046FFF79DFE87
:101A100029462046FFF7D2FF208940F007002081A9
:101A2000BDE8F08130B50C4600210189C9B24FF6FE
:101A3000FF7505EA0325154325432943018130BD80
:101A40002DE9F04105460E461746984600244346C8
:101A50003A4631462846FFF7E5FF2C894FF6F870E5
:101A6000044044F007044FF68F70044044F07004C3
:101A70002C81BDE8F081F0B504460D4616461F46A0
:101A80003B46324629462046FFF7CCFF208940F4EA
:101A900080402081F0BD0185828270470A46002186
:101AA00001884FF68F731940114301807047F0B5DC
:101AB0000C4615461E460021002200230189028B98
:101AC000038C4FF6F877394021434FF6FC473A40F4
:101AD00040F201173A434FF6DD773B404FF6FF7770
:101AE00007EA06172F433B43018102830384F0BDBD
:101AF0000A460021018B4FF68F7319401143018371
:101B000070470A460021018B48F6FF7319404FF6D3
:101B1000FF7303EA02231943018370470A46002139
:101B2000818B4FF68F7319401143818370470A46AA
:101B30000021818B48F6FF7319404FF6FF7303EACB
:101B4000022319438183704721B1028842F0800249
:101B5000028004E002884FF67F731A4002807047CB
:101B600021B1828842F00402828004E082884FF62C
:101B7000FB731A408280704721B1828842F00802CC
:101B8000828004E082884FF6F7731A4082807047A3
:101B900021B1828842F00102828004E082884FF6FF
:101BA000FE731A40828070470A460021018B4FF66F
:101BB000F77319401143018370470A460021018BD6
:101BC0004FF2FF7319404FF6FF7303EA02231943E4
:101BD000018370470A460021818B4FF6F773194045
:101BE0001143818370470A460021818B4FF2FF73B6
:101BF00019404FF6FF7303EA0223194381837047AC
:101C00000A460021018B4FF6FB73194011430183F3
:101C100070470A460021018B4FF6FF3319404FF6FB
:101C2000FF7303EA02231943018370470A46002128
:101C3000818B4FF6FB7319401143818370470A462D
:101C40000021818B4FF6FF3319404FF6FF7303EAF3
:101C500002231943818370470A460021018B4FF606
:101C60007F7319401143018370470A460021018B9D
:101C7000C1F30E014FF6FF7303EA022319430183F8
:101C800070470A460021818B4FF67F73194011433C
:101C9000818370470A460021818BC1F30E014FF604
:101CA000FF7303EA02231943818370470A46002128
:101CB000018C4FF6FD7319401143018470470A46A9
:101CC0000021018C4FF6F7731940114301847047CE
:101CD0000A460021018C4FF6DF7319404FF6FF735F
:101CE00003EA02131943018470470A460021018C5C
:101CF0004FF67F7319404FF6FF7303EA021319433F
:101D0000018470470A460021018C4FF6FF531940A9
:101D10004FF6FF7303EA02231943018470470A4612
:101D20000021018C4FF2FF7319404FF6FF7303EA55
:101D300002231943018470470A460021018C4DF6A5
:101D4000FF7319404FF6FF7303EA0233194301840E
:101D5000704730B5002301248C40A3B2048C9C430F
:101D60000484048C02FA01F5ADB22C43048430BD26
:101D700030B5002304248C40A3B2048C9C4304841B
:101D8000048C02FA01F5ADB22C43048430BD70B569
:101D90000346002000241846183001258D40ACB2BF
:101DA0001D8CA5431D8409B1082909D100EB6100F0
:101DB000056825F0700505600568154305600EE0AF
:101DC0000D1FC5F34E052844056825F4E045056060
:101DD00005684FF6FF7606EA02263543056070BDBA
:101DE00021B1028842F00202028004E002884FF62C
:101DF000FD731A400280704721B1028842F004024C
:101E0000028004E002884FF6FB731A40028070479C
:101E100021B1828842F08002828004E082884FF6FD
:101E20007F731A408280704702884FF6F7731A401A
:101E3000028002880A430280704782884FF68F73BF
:101E40001A40828082880A438280704702894FF656
:101E5000F8731A40028102890A430281704702899D
:101E60004FF67F731A40028102890A43028170474C
:101E700081847047818570478186704701877047EC
:101E800081877047A0F84010704702884FF6FF43E3
:101E90001A40028002880A43028070470146888EF9
:101EA00070470146088F70470146888F704701468A
:101EB000B1F8400070470146888C70470146088D94
:101EC000704702460020138A0B400BB1012000E04E
:101ED00000207047CA430282704730B50246002096
:101EE00000230024158A05EA0103958905EA010407
:101EF00013B10CB1012000E0002030BDCA430282C2
:101F00007047000010B50446FB48844209D1012106
:101F10008803FFF79FF800214FF48040FFF79AF8FD
:101F200032E0F648844209D101214804FFF79FF8C6
:101F300000214FF40030FFF79AF825E0F048844282
:101F400009D101218804FFF792F800214FF4802085
:101F5000FFF78DF818E0EB48844209D10121C8044D
:101F6000FFF785F800214FF40020FFF780F80BE021
:101F7000E548844208D101210805FFF778F80021DF
:101F80004FF48010FFF773F810BD2DE9F04786B0CD
:101F900005460E460024A24600BFA1460027B08990
:101FA00000B100BF2F462C8A4CF6FF700440F08829
:101FB00004432C82AC894EF6F3100440B08831897A
:101FC0000843718908430443AC81AC8A4FF6FF4053
:101FD0000440B0890443AC8201A8FEF7B4FFC648B0
:101FE000874202D1DDF810A001E0DDF80CA0A8893D
:101FF00000F4004040B10AEBCA0000EB0A1031685F
:102000004900B0FBF1F807E00AEBCA0000EB0A1048
:1020100031688900B0FBF1F86420B8FBF0F00401EE
:102020002009642101FB1089A88900F4004040B117
:10203000322000EBC900B0FBF1F000F007000443D0
:1020400008E0322000EB09106421B0FBF1F000F051
:102050000F0004432C8106B0BDE8F0874FF4165101
:10206000016000218180C18001810C21418100211A
:102070008181704710B502460020108A4FF2FF039D
:1020800018400B884C8823438C882343CC882343F7
:102090001843108210BD0021018041808180C180E1
:1020A000704721B1828942F40052828104E0828922
:1020B0004DF6FF731A4082817047F0B50346002445
:1020C00000260025002040F66A17B94200D100BF63
:1020D0001846C1F3421401F01F06012707FA06F55E
:1020E000012C01D10C3004E0022C01D1103000E0B1
:1020F00014301AB107682F43076002E00768AF4346
:102100000760F0BD1AB1838A0B43838202E0838AA1
:102110008B4383827047028A4FF6F0731A40028223
:10212000028A0A430282704782894FF2FF731A4083
:10213000828182890A438281704721B1828942F07B
:102140000202828104E082894FF6FD731A40828187
:102150007047028A4FF6DF731A400282028A0A43EE
:102160000282704721B1028A42F48042028204E076
:10217000028A4BF6FF731A4002827047C1F30802CD
:102180008280704701468888C0F3080070478189C3
:1021900041F0010181817047028BD2B20283028B30
:1021A00042EA012202837047028B02F47F420283DB
:1021B000028B0A430283704721B1828A42F02002D7
:1021C000828204E0828A4FF6DF731A40828270476F
:1021D00021B1828A42F01002828204E0828A4FF6A4
:1021E000EF731A408282704721B1828A42F008025E
:1021F000828204E0828A4FF6F7731A408282704727
:1022000021B1828942F40042828103E08289C2F3D3
:102210000E028281704721B1828A42F4006282827A
:1022200004E0828A4FF2FF731A4082827047828AEA
:102230004FF6FB731A408282828A0A438282704779
:1022400021B1828A42F00202828204E0828A4FF641
:10225000FD731A408282704702460020B1F5007F6C
:1022600000D100BF13880B400BB1012000E000201B
:10227000704701F40072B2F5007F00D100BFCA437D
:102280000280704770B5024600240023002500201C
:1022900040F66A16B14200D100BFC1F3421501F009
:1022A0001F03012606FA03F3012D02D1968933405C
:1022B00006E0022D02D1168A334001E0968A3340AF
:1022C0000C12012606FA04F41688344013B10CB13E
:1022D000012000E0002070BD10B50022002340F670
:1022E0006A14A14200D100BF0A1201249440A3B293
:1022F000DC43048010BD0000003801400044004071
:1023000000480040004C00400050004001F08AFAB4
:1023100000F0A9F84FF4FA600C49A1F8010013E0AD
:1023200001F04EF90A48007848B1002008490870C9
:1023300000F12E020146072000F017FC04E02022E5
:102340000021072000F011FCEAE700003200002025
:102350003A0000203348008800F02000002852D0C6
:102360003049091D0988C8B22F49097839B98A2826
:1023700005D101212C4A11702C49087042E02A49EC
:102380000978012907D18B2805D10221264A11702D
:102390002649487036E02449097802290DD11C28C5
:1023A0000BD10321204A1170204988701C21204A3A
:1023B000117000211F4A117024E01B49097803297C
:1023C00015D11B490978491E194A11701949097814
:1023D000184A1278521C174B1A70C91C134A5054D1
:1023E0001349097871B904210F4A11700AE00E49A6
:1023F0000978042903D100210B4A117002E0002161
:10240000094A117000BF7047704700BFFEE700BF68
:10241000FEE700BFFEE700BFFEE77047704770476A
:102420007047000000480040280000203C000020C9
:10243000290000202A00002008B501210420FEF711
:10244000EFFD0120ADF8000003208DF80200102000
:102450008DF8030069460D48FEF722FB01210B4869
:10246000FEF7CBFB08BD10B501210848FEF7CBFBFA
:102470004FF4FA7000F0E2FE01210448FEF7BDFBC4
:102480004FF4FA7000F0DAFE10BD000000080140C1
:1024900001B502E00098401E009000980028F9D194
:1024A00008BD08B501210420FEF7BAFD012108206E
:1024B000FEF7B6FDC220ADF8000003208DF8020043
:1024C00048208DF8030069465B48FEF7E9FA0320CF
:1024D000ADF800008DF8020048208DF80300694631
:1024E0005648FEF7DDFA08BD10B580215248FEF7C8
:1024F0006AFB012819D1142000F0A0FE80214E486B
:10250000FEF761FB012871D101214B48FEF77BFBEF
:1025100000BF80214848FEF756FB0128F9D0012171
:102520004548FEF76AFB012010BD02214348FEF733
:102530004AFB012819D1142000F080FE02213F48F7
:10254000FEF741FB012874D101213B48FEF75BFBFC
:1025500000BF02213948FEF736FB0128F9D00121DE
:102560003548FEF74AFB0420DEE701213348FEF739
:102570002AFB01281AD14FF4FA5000F05FFE012126
:102580002E48FEF720FB012853D101212A48FEF7EF
:102590003AFB00BF01212948FEF715FB0128F9D0BD
:1025A00001212548FEF729FB0520BDE7022122482D
:1025B000FEF709FB01281AD1142000F03FFE02218A
:1025C0001D48FEF700FB012833D101211A48FEF710
:1025D0001AFB00BF02211848FEF7F5FA0128F9D0CE
:1025E00001211548FEF709FB03209DE721E040216A
:1025F0001148FEF7E8FA012819D1142000F01EFE58
:1026000040210D48FEF7DFFA012812D101210A48C6
:10261000FEF7F9FA00BF40210748FEF7D4FA012877
:10262000F9D001210448FEF7E8FA02207CE70020F7
:102630007AE7002078E7000000080140000C014024
:1026400070B5044608252903FA48FEF7D6FA00BFFC
:102650002021F948FEF7D7FA00BF16E004F0800009
:1026600020B11021F448FEF7C8FA03E01021F24827
:10267000FEF7C9FA2021F048FEF7BFFA00BF20217B
:10268000ED48FEF7C0FA6006040E2800A5F101012E
:10269000CDB2E3D170BD70B5044608252903E548E5
:1026A000FEF7B1FA2021E448FEF7ADFA00BF16E0CC
:1026B00004F0800020B11021DF48FEF79EFA03E00D
:1026C0001021DD48FEF79FFA2021DB48FEF795FA3E
:1026D00000BF2021D848FEF796FA6006040E2800B5
:1026E000A5F10101CDB2E3D170BD70B504460D4630
:1026F00005F1B001C8B2FFF7CEFF102141EA141076
:10270000FFF7C9FF04F00F00FFF7C5FF70BD70B5FC
:102710000646002415E004F1B001C8B2FFF7BBFF84
:102720000120FFF7B8FF1020FFF7B5FF002504E0F8
:102730003046FFF785FF681CC5B2802DF8DB601CB2
:10274000C4B2082CE7DB70BD70B5002415E004F1BD
:10275000B001C8B2FFF79FFF0120FFF79CFF1020D8
:10276000FFF799FF002504E00020FFF769FF681CD0
:10277000C5B2802DF8DB601CC4B2082CE7DB70BD4D
:1027800007E040F2375100BF0A00A1F10101FBD17F
:10279000401E0028F5D1704710B504462046FFF7CB
:1027A0007AFF10BD70B504462546E11704EB1171A0
:1027B0000911A4EB0111C8B2FFF76DFF2546E1171F
:1027C00004EB117109111031C8B2FFF764FF70BD3D
:1027D00010B504462020FFF75EFF2046FFF75BFFA1
:1027E00010BD70B505460C462120FFF754FF284662
:1027F000FFF751FF2046FFF74EFF70BD70B505464D
:102800000C462220FFF747FF2846FFF744FF2046EB
:10281000FFF741FF70BD10B5044644F04000FFF7DC
:102820003AFF10BD10B504468120FFF734FF204663
:10283000FFF731FF10BD10B504468D20FFF72BFFC9
:1028400044F01000FFF727FF10BD10B5044644F018
:10285000A000FFF720FF10BD10B5044644F0A4000F
:10286000FFF719FF10BD10B5044644F0A600FFF7AE
:1028700012FF10BD10B50446A820FFF70CFF20463C
:10288000FFF709FF10BD10B5044644F0AE00FFF796
:1028900002FF10BD10B5044644F0B000FFF7FBFE88
:1028A00010BD10B5044644F0C000FFF7F4FE10BDA3
:1028B00010B50446D320FFF7EEFE2046FFF7EBFEEF
:1028C00010BD10B50446D520FFF7E5FE2046FFF702
:1028D000E2FE10BD10B50446D920FFF7DCFE20460D
:1028E000FFF7D9FE10BD10B50446DA20FFF7D3FE7E
:1028F00044F00200FFF7CFFE10BD10B50446DB2008
:10290000FFF7C9FE2046FFF7C6FE10BD10B5E32055
:10291000FFF7C1FE10BD1CB501210846FEF780FB84
:1029200001214648FEF791F901210420FEF778FBCA
:102930004FF40040ADF8040003208DF8060010208D
:102940008DF8070001A93B48FEF7AAF801210820ED
:10295000FEF766FB3820ADF8000003208DF802007A
:1029600010208DF8030069463348FEF799F82021BE
:102970003148FEF742F908212F48FEF744F932208A
:10298000FFF7FEFE08212C48FEF737F9AE20FFF7CF
:1029900082FED520FFF77FFE8020FFF77CFEA82077
:1029A000FFF779FE3F20FFF776FED320FFF773FE97
:1029B0000020FFF770FE4020FFF76DFE8D20FFF72F
:1029C0006AFE1420FFF767FE2020FFF764FE022056
:1029D000FFF761FEA120FFF75EFEC820FFF75BFE58
:1029E000DA20FFF758FE1220FFF755FE8120FFF78F
:1029F00052FECF20FFF74FFED920FFF74CFEF1200B
:102A0000FFF749FEDB20FFF746FE4020FFF743FEBD
:102A1000A420FFF740FEA620FFF73DFEAF20FFF702
:102A20003AFE0020FFF773FE00210846FFF75DFE27
:102A30001CBD000000080140000C014000023000F5
:102A400070B505460C4621462846FFF74EFE204647
:102A5000E11704EB5171C910A4EBC10201219140AF
:102A6000CEB2B02101EBE401C8B2FFF714FE102191
:102A700041EA1510FFF70FFE05F00F00FFF70BFE00
:102A80003046FFF7DDFD70BD2DE9F047044688466E
:102A900015464FF000090026002741462046FFF763
:102AA00024FE1CE0E85D203800F0FF097E2C04DDE8
:102AB000002408F1010000F0FF08002609E009EBFE
:102AC0004901FE4A02EB4101885DFFF7B9FD701C28
:102AD000C6B2062EF3DBA01DC4B2781CC7B2E85DF7
:102AE0000028DFD1BDE8F0872DE9F04706460F4604
:102AF000904600250024A14631E018F8090020384E
:102B0000C5B2782E02DD0026781CC7B239463046A1
:102B1000FFF7EBFD002407E004EB0511E84A505CE9
:102B2000FFF78EFD601CC4B2082CF5DB781CC1B227
:102B30003046FFF7DAFD002408E004EB0511083108
:102B4000DF4A505CFFF77CFD601CC4B2082CF4DB4C
:102B500006F10800C6B209F1010000F0FF0918F8FB
:102B600009000028C9D1BDE8F087F8B505460C4634
:102B70001646E006040E8DF8006000208DF8010076
:102B80006A4629462046FFF77FFFF8BD2DE9FC4144
:102B900007460E461446984600BF0020009001905C
:102BA00006EB46004006060E42F21070B4FBF0F051
:102BB0000A21B0FBF1F201FB12008DF800004FF486
:102BC0007A70B4FBF0F0B0FBF1F201FB12008DF86B
:102BD00001006420B4FBF0F0B0FBF1F201FB120045
:102BE0008DF802000A20B4FBF0F0B0FBF1F201FB1B
:102BF00012008DF803000A20B4FBF0F100FB114035
:102C00008DF80400002507E01DF805003030C0B243
:102C10000DF80500681CC5B2052DF5DBC8F10500EF
:102C20006946421839463046FFF72EFFBDE8FC8161
:102C30002DE9FF5F86B014461D464FF0010A0020C3
:102C40000390049005900126814600BF8346002230
:102C500013462046294601F043F809D285F000408A
:102C6000CDE900402046019900F0EFFF814604E0E5
:102C70002046294600F0E9FF8146484600F0C7FF9C
:102C800022462B46CDE9000100F043FF0746884667
:102C900000228C4B3846414600F03EFFCDE9000152
:102CA00000F0F2FF834606E006EB860046000AF1DC
:102CB000010000F0FF0A0A2099FBF0F090FBF6F00B
:102CC0000028F1D142F2107099FBF0F00A2190FB3C
:102CD000F1F201FB1200C0B28DF80C004FF47A70D3
:102CE00099FBF0F090FBF1F201FB1200C0B28DF8FD
:102CF0000D00642099FBF0F090FBF1F201FB120053
:102D0000C0B28DF80E000A2099FBF0F090FBF1F2B2
:102D100001FB1200C0B28DF80F000A2099FBF0F100
:102D200000FB1190C0B28DF810002E208DF811001C
:102D30004FF47A70BBFBF0F00A21B0FBF1F201FB1B
:102D400012008DF812006420BBFBF0F0B0FBF1F232
:102D500001FB12008DF813000A20BBFBF0F0B0FB62
:102D6000F1F201FB12008DF814000A20BBFBF0F118
:102D700000FB11B08DF8150000211498801D03AAE6
:102D80001154002605E003A8805D303003A9885562
:102D9000761C0A2EF7DB002213462046294600F057
:102DA0009FFF08D20AF1010000F0FF0A2D20CAF1AE
:102DB000050103AA50542E208DF81100002114980B
:102DC000801D03AA1154002603E0202003A9885582
:102DD000761CCAF10500B042F7DC0DF10D02DDE909
:102DE0000610FFF751FE0AB0BDE8F09F2DE9F04F45
:102DF00089B08246894617469846DDF84CB00120D6
:102E0000079000200490059006900124002500BF43
:102E100000264FEAC9604FEA10693846414600F083
:102E200014FF0546284600F003FF3A464346CDE925
:102E3000000100F06EFECDE902010022214BDDE928
:102E4000020100F069FECDE9000100F01DFF064619
:102E500006E004EB840044000798401CC0B20790D1
:102E60000A20B5FBF0F0B0FBF4F00028F1D142F2FB
:102E70001070B5FBF0F00A21B0FBF1F201FB12007B
:102E80008DF810004FF47A70B5FBF0F0B0FBF1F262
:102E900001FB12008DF811006420B5FBF0F0B0FBCF
:102EA000F1F201FB12008DF812000A20B5FBF0F0E0
:102EB000B0FBF1F201FB120006E00000DE3E00086C
:102EC000064100080088C3408DF813002E208DF8BD
:102ED00015004FF47A70B6FBF0F0B0FBF1F201FB95
:102EE00012008DF816006420B6FBF0F0B0FBF1F292
:102EF00001FB12008DF817000A20B6FBF0F0B0FBC2
:102F0000F1F201FB12008DF818000A20B6FBF0F177
:102F100000FB11608DF8190000210BF1060004AAD6
:102F20001154002405E004A8005D303004A90855C0
:102F3000641C0A2CF7DB2E208DF8150000210BF104
:102F4000060004AA11541298C0F1050004A9421801
:102F500051464846FFF7C8FD09B0BDE8F08F2DE99E
:102F6000F05F06460F4690461C46DDF828A04FF05D
:102F7000000BE11704EB5171C910A4EBC10131B989
:102F80002046E11704EB5171C1F3C70506E0204666
:102F9000E11704EB5171C910491CCDB23D4614E054
:102FA00029463046FFF7A1FBB1460AE059460BF12E
:102FB000010B1AF80100FFF743FB09F1010000F0D3
:102FC000FF09C145F2DB681CC5B2A542E8DDBDE8DA
:102FD000F09FF8B506460F461446002000900225E3
:102FE0000DE00A2094FBF0F100FB11403030C0B23C
:102FF0000DF805000A2094FBF0F0C4B26D1E002D00
:10300000EFDA6A4639463046FFF76EFDF8BDF8B58F
:1030100006460F4614460020009002250DE00A20C7
:1030200094FBF0F100FB11403030C0B20DF8050008
:103030000A2094FBF0F0C4B26D1E002DEFDA6A4650
:1030400039463046FFF720FDF8BD2DE9F041054631
:103050000F46164600BF05EB45014906080E3946E6
:10306000FFF743FB00240AE006F1100101EB4101E8
:10307000634A02EB4101085DFFF7E2FA641C062C8B
:10308000F2DBBDE8F0812DE9F04705460E46144617
:103090000A2094FBF0F100FB1140C7B20A2094FB18
:1030A000F0F00A2190FBF1F201FB120000F0FF08A2
:1030B000642094FBF0F000F0FF09A91CC8B23A4666
:1030C0003146FFF7C2FF691CC8B242463146FFF7DE
:1030D000BCFF4A4631462846FFF7B7FFBDE8F087F8
:1030E0002DE9F05F05468B4616463446002C00DA83
:1030F00064424FF47A7094FBF0F0C7B24FF47A70E8
:1031000094FBF0F100FB1140642190FBF1F000F022
:10311000FF08642094FBF0F100FB11400A2190FBB2
:10312000F1F000F0FF090A2094FBF0F100FB1140E0
:1031300000F0FF0A3A4659462846FFF786FF691C09
:10314000C8B242465946FFF780FFA91CC8B24A469A
:103150005946FFF77AFFE91CC8B252465946FFF7B5
:1031600074FFBDE8F09F2DE9F05F05460E4614465A
:1031700042F21070B4FBF0F0C7B242F21070B4FB30
:10318000F0F100FB11404FF47A71B0FBF1F000F068
:10319000FF080846B4FBF0F100FB11406421B0FBCE
:1031A000F1F000F0FF096420B4FBF0F100FB1140E6
:1031B0000A21B0FBF1FA0A20B4FBF0F100FB114B3D
:1031C0003A4631462846FFF740FF691CC8B24246DE
:1031D0003146FFF73AFFA91CC8B24A463146FFF70D
:1031E00034FFE91CC8B252463146FFF72EFF291DB5
:1031F000C8B25A463146FFF728FFBDE8F09F0000ED
:10320000DE3E00084FF0E021096921F004014FF093
:10321000E0221161C21700EB5272C2F3C702294BC0
:103220001A701946097801EB4102C2EBC1114FF641
:10323000FF7202EAC101244A118070470146224A06
:1032400012884A434FF0E0235A6100229A6101221A
:103250001A6100BF4FF0E022106900F001021AB1BC
:1032600000F48032002AF5D000224FF0E0231A61EA
:103270009A6170470146134A12784A434FF0E0239F
:103280005A6100229A6101221A6100BF4FF0E022C8
:10329000106900F001021AB100F48032002AF5D062
:1032A00000224FF0E0231A619A617047002106E086
:1032B000002200E0521CB2F5FA7FFBD3491C814288
:1032C000F6D370472C0000202E0000207FB5054665
:1032D0000C4601210420FDF7B0FE681E80B2ADF857
:1032E0000800601E80B2ADF804000020ADF80600B2
:1032F000ADF80A0001A91748FDF7CAFF01221146DF
:103300001448FEF73CFB01211248FEF71DFB1E206E
:103310008DF8000001208DF8010003208DF80200D7
:1033200001208DF803006846FDF713F87FBD10B546
:1033300001210848FEF7D1FD012806D10648007892
:10334000401C40B20449087000BF01210148FEF74B
:10335000D5FD10BD0008004030000020F8B5A4A243
:1033600000210846FFF790FBA3A201210020FFF7F0
:103370008BFBA3A202210020FFF786FBA2A2032160
:103380000020FFF781FBA2A204210020FFF77CFBB5
:10339000A1A205210020FFF777FBA1A206210020B2
:1033A000FFF772FBA049B1F9030000F027FC0746C4
:1033B0009E4900F0CCFA044600F07FFC054601204F
:1033C0002A460B46192100900020FFF731FC964950
:1033D000B1F9010000F012FC0746944900F0B7FA79
:1033E000044600F06AFC054601202A460B461921D6
:1033F0000090FFF71DFC8C49B1F9050000F0FEFBC1
:1034000007468A4900F0A3FA044600F056FC054638
:1034100001202A460B46192100900220FFF708FCE4
:103420008148B0F80720042319460320FFF7AEFBBC
:103430007D48B0F80920042319461846FFF7A6FB7B
:103440007948B0F80B20042319460520FFF79EFBAE
:103450007548B0F80D20042319460620FFF796FBA7
:1034600031227F210720FFF780FBFFF73DF8052879
:1034700006D1FFF769F96E480078401C6C49087066
:10348000F8BD10B56BA202210020FFF7FDFA6BA278
:1034900004210020FFF7F8FA6A48B0F80100C0F3F1
:1034A0000B02042332210220FFF770FB6548B0F8BD
:1034B0000100000B20B1012808D0022812D10BE036
:1034C00061A204212D20FFF7DFFA0CE060A20421A5
:1034D0002D20FFF7D9FA06E05FA204212D20FFF787
:1034E000D3FA00E000BF00BF32227F210720FFF7A0
:1034F0003CFBFEF7F9FF06284FD2DFE800F04E0351
:10350000152736464F48B0F80100C0F30B00B0F560
:103510007A6F06DA4B48B0F8010014304949A1F837
:10352000010000F0C7F839E04648B0F80100C0F3E8
:103530000B00B0F5FA6F06DD4248B0F80100143810
:103540004049A1F8010000F0B5F827E03D48B0F887
:103550000100000B002807DD3A48B0F80100A0F593
:1035600080503849A1F8010018E03648B0F8010051
:103570000221B1EB103F07DD3248B0F8010000F541
:1035800080503049A1F8010008E0FFF7DDF8284835
:103590000078401C2649087000BF00BF00BF10BD66
:1035A00010B533227F210720FFF7DFFAFEF79CFFDB
:1035B000052804D1FFF7C8F800201D49087010BD88
:1035C00010B51B48007820B1012805D0022809D188
:1035D00005E0FFF7C3FE08E0FFF753FF05E0FFF744
:1035E000DFFF02E0FFF7BAFE00BF00BF10BD000022
:1035F000526F6C3A000000005069743A00000000FD
:103600005961773A000000004D54313A0000000043
:103610004D54323A000000004D54333A000000008F
:103620004D54343A000000006E000020000020419C
:1036300031000020506F7765723A00004D6F64656D
:103640003A000000320000202053746F7020000008
:103650004D616E75616C00004175746F6D610000A5
:103660000021DD22674B1A70002005E0654A125CDC
:103670000A44D1B2421CD0B20628F7D3614A9171F4
:10368000704700BF028802F08002002AFAD08180D1
:10369000704770B505460E46002408E0315D5A4873
:1036A000FFF7EFFF6420FFF7E5FD601CC4B2AC42FA
:1036B000F4DB70BD10B5FFF7D3FF54491020FFF7BE
:1036C000E8FF10BD00B587B001210420FDF7A8FC7C
:1036D00001218803FDF7A4FC4FF40070ADF8180039
:1036E00018208DF81B0003208DF81A0006A9484801
:1036F000FDF7D6F94FF48060ADF8180004208DF87E
:103700001B0006A94248FDF7CBF94FF4E1300290C7
:103710000020ADF80C00ADF80E00ADF81000ADF8CB
:1037200014000C20ADF8120002A93748FEF72DFC5A
:10373000012240F225513448FEF7BFFC01213248F6
:10374000FEF7AFFC25208DF8040001208DF8050060
:1037500002208DF8060001208DF8070001A8FCF773
:10376000F8FD07B000BD70B540F225512648FEF7C0
:1037700089FD012845D140F225512348FEF7ACFDD3
:103780002148FEF7FFFCC5B2DD2D05D121480078A8
:1037900010B901201F4908701E480078012808D17F
:1037A0001D481E49097845541C480078401C1B4997
:1037B00008701A480078102823D9002405E016481C
:1037C000005D3044C6B2601CC4B20F2CF7D312485F
:1037D0000078DD2810D11048C07BB0420CD1002405
:1037E00005E00D48005D09490855601CC4B2102C65
:1037F000F7D301200A4908700020064908700749DC
:10380000087070BD32000020003801406E000020BA
:1038100000080140390000207E0000203B0000200D
:103820003A00002010B54820FFF7ECFCFEF704FE3C
:10383000FFF771F8FEF735FEFFF744FF00F04FF891
:103840002D214FF4FA60FFF741FD10BD08B54FF48C
:10385000E060FCF779FD25208DF8000000208DF850
:1038600001008DF8020001208DF803006846FCF786
:1038700070FD1D208DF8000000208DF801008DF8EE
:10388000020001208DF803006846FCF762FD0A2063
:103890008DF8000001208DF801008DF802008DF8F0
:1038A00003006846FCF755FD17208DF80000012045
:1038B0008DF801008DF802008DF803006846FCF7D2
:1038C00048FD28208DF8000001208DF801008DF8BA
:1038D00002008DF803006846FCF73BFD08BD10B5FB
:1038E000FDF730FA4FF48030FDF74CFA0020FDF779
:1038F000CEFA0020FDF7DDFA4FF48060FDF7D0FA34
:103900000220FCF78FFD1020FCF7A0FD4FF4E01122
:103910004FF48030FDF79EFA0120FDF7A7FA00BFB3
:103920003920FDF752FA0028FAD00220FDF7A1FA5B
:1039300000BFFDF7A7FA0828FBD1012144F20C00D3
:10394000FDF76EFB01214804FDF777FB10BD30B495
:1039500080EA010202F0004530F0004221F0004010
:1039600013D090B1C30DD40DC2F31601C0F31600ED
:10397000E41A41F4000140F400027D34914201D385
:10398000641C00E04900002C02DA30BC00207047C3
:103990004FF400000023914201D3891A03434008E9
:1039A0004FEA4101F7D151B1914202D14FF00041AC
:1039B00005E002D24FF0010101E06FF0010103EBDD
:1039C000C450284430BC00F0D4B92DE9FE4F8046E5
:1039D00081EA0300C00F0C46009021F0004123F063
:1039E0000045B8EB0200A94105D240462146904669
:1039F0001C460B46024623F00040104347D0270DDB
:103A0000C7F30A00C3F30A510290401A01904028FC
:103A10006BDAC3F3130040F4801B0098924620B188
:103A20000023D2EB030A63EB0B0B01985946C0F15C
:103A30004002504600F06CF906460D465046594685
:103A4000019A00F084F910EB08006141002487EA34
:103A5000115284EAE7731A4340D0009A62B3019A84
:103A6000012A4FEA075215DC001B61EB02014FF0FF
:103A7000004202EA0752CDE90042001C41F58011E4
:103A800032462B4600F0BBF903B0BDE8F08F40464C
:103A90002146F9E7001B61EB0201001C41F5801390
:103AA00000185B412018A2F5001747EB030140EA1C
:103AB000D570B6196D4111E06D084FEA360645EA3A
:103AC000C0754FEA0752001B61EB0201001C41F573
:103AD000801149084FEA30000019514132462B4607
:103AE00003B0BDE8F04F00F07BB900980122400020
:103AF0000023D0EB020263EBE073009821464FEA0B
:103B0000E074B8EB000061EB0401E9E783F00043E7
:103B10005BE781F0004158E72DE9FE4F81EA03049D
:103B200004F0004421F0004100944FF0000B23F01A
:103B3000004350EA01045ED052EA03045BD0C3F3B1
:103B40000A54C1F30A552C44A4F2F3340194A0FBA7
:103B50000254C1F3130141F48011C3F3130343F47E
:103B6000801301FB024400FB034E840A970A44EAD7
:103B7000815447EA8357A4FB076802958D0A05FB29
:103B800007854FEA932C04FB0C542705029D4FEA4E
:103B9000065847EA1637B5EB08056EEB070C870E9B
:103BA000920E47EA811742EA8312A7FB0201B6EBA5
:103BB0000B0164EB00042B0D43EA0C335E1844EB5D
:103BC0001C50DA465146E7FB0201C5F313044FEAE5
:103BD0000B3343EA14534FEA0432019C43EA0603D1
:103BE000A4F10C040294009CCDE900B400F007F9A4
:103BF00003B0BDE8F08F00200146F9E7C10F80EA6D
:103C0000E0700844CA079623002100F0BBB80EB547
:103C1000C10F80EAE0700844CA07002140F2334334
:103C20008DE80E000A460B4600F0E9F803B000BD2F
:103C30000EB540F2334102910021CDE900110A4650
:103C40000B4600F0DCF803B000BD70B5C1F30A52BA
:103C500001F000450024C1F3130140F2FF3341F4A9
:103C600080119A4201DA002070BD40F233439A423B
:103C7000A2F2334203DC524200F059F800E09040D7
:103C80002C43F1D0404270BDC1F30A5210B5C1F3CC
:103C9000130140F2FF3341F480119A4201DA00200F
:103CA00010BD40F233439A42A2F2334203DC524247
:103CB00000F03DF810BD904010BD00F0004230F023
:103CC00000400AD0C10D01F56071C0F3160042EA50
:103CD0000151C20840071143704700200146704758
:103CE00030B5041E71F1000404DB4FF00044404283
:103CF00064EB0101141E73F1000405DB1C464FF058
:103D00000043524263EB04038B4208BF824230BD42
:103D1000202A04DB203A00FA02F10020704791408B
:103D2000C2F1200320FA03F3194390407047202A80
:103D300004DB203A21FA02F00021704721FA02F355
:103D4000D040C2F120029140084319467047202A12
:103D500006DBCB17203A41FA02F043EAE07306E0B3
:103D600041FA02F3D040C2F12002914008431946C3
:103D700070470029A8BF7047401C490008BF20F0C9
:103D80000100704710B4B0FA80FC00FA0CF050EA61
:103D9000010404BF10BC704749B1CCF1200421FAE2
:103DA00004F411FA0CF118BF012121430843A3EBDD
:103DB0000C01CB1D4FEA00614FEA102042BF0020EA
:103DC00010BC704700EBC35010440029A4BF10BCC6
:103DD0007047401C490008BF20F0010010BC70472C
:103DE00010B5141E73F1000408DA401C41F1000103
:103DF00092185B411A4301D120F0010010BD2DE95A
:103E0000F04D92469B4611B1B1FA81F202E0B0FA50
:103E100080F220329046FFF77BFF04460F4640EACF
:103E20000A0041EA0B0153465A46084313D0114693
:103E300053EA010019D0C8F140025046FFF777FF5E
:103E400005460E46504659464246FFF761FF084375
:103E500005D0012004E020463946BDE8F08D002061
:103E6000054346EAE0762C4337430A986305E40AA3
:103E7000A0EB08000022FD0A44EA47540A3002D5AC
:103E800000200146E9E7010510196941DDE908450F
:103E900000196941BDE8F04DA2E70000064C074D4E
:103EA00006E0E06840F0010394E80700984710340A
:103EB000AC42F6D3FCF740F9F84600081847000872
:103EC00002E008C8121F08C1002AFAD170477047E3
:103ED000002001E001C1121F002AFBD17047000041
:103EE000000000000000002F000000000700070095
:103EF00000147F147F1400242A7F2A1200626408B1
:103F0000132300364955225000000503000000002D
:103F10001C224100000041221C000014083E08142D
:103F20000008083E0808000000A060000808080813
:103F30000808000060600000002010080402003E35
:103F40005149453E0000427F4000004261514946D0
:103F5000002141454B31001814127F1000274545C0
:103F60004539003C4A4949300001710905030036D2
:103F70004949493600064949291E000036360000E5
:103F8000000056360000081C2A49080800141414C2
:103F900014140808492A1C080002015109060032BD
:103FA0004959513E007C1211127C007F4949493623
:103FB000003E41414122007F4141221C007F49498E
:103FC0004941007F09090901003E4149497A007FC2
:103FD0000808087F0000417F4100002040413F0168
:103FE000007F08142241007F40404040007F020CC7
:103FF000027F007F0408107F003E4141413E007F68
:1040000009090906003E4151215E007F0919294630
:104010000046494949310001017F0101003F40400C
:10402000403F001F2040201F003F4038403F0063BA
:1040300014081463000708700807006151494543DC
:1040400000007F41410000552A552A55000041419A
:104050007F000402FF020400002040FF4020000017
:1040600001020400002054545478007F484444382E
:1040700000384444442000384444487F00385454B5
:10408000541800087E0901020018A4A4A47C007F33
:10409000080404780000447D4000004080847D00D6
:1040A000007F102844000000417F4000007C04187D
:1040B0000478007C0804047800384444443800FC48
:1040C000242424180018242418FC007C0804040864
:1040D00000485454542000043F444020003C4040D9
:1040E000207C001C2040201C003C4030403C004410
:1040F00028102844001CA0A0A07C004464544C4418
:104100001414141414140000000000000000000037
:10411000000000000000000000F8000000000000A7
:1041200000333000000000100C06100C06000000E8
:1041300000000000000040C07840C0784000043F0C
:1041400004043F040400007088FC083000000018DC
:1041500020FF211E0000F008F000E0180000002100
:104160001C031E211E0000F00888700000001E21A4
:1041700023241927211010160E0000000000000053
:10418000000000000000000000E018040200000031
:1041900000071820400000020418E0000000004062
:1041A000201807000000404080F0804040000202DC
:1041B000010F01020200000000F0000000000101F8
:1041C000011F01010100000000000000000080B09C
:1041D000700000000000000000000000000000016E
:1041E0000101010101010000000000000000003099
:1041F0003000000000000000000080601804006033
:1042000018060100000000E010080810E000000F90
:10421000102020100F00001010F8000000000020F7
:10422000203F20200000007008080888700000303F
:1042300028242221300000300888884830000018E7
:10424000202020110E000000C02010F80000000700
:104250000424243F240000F8088888080800001976
:10426000212020110E0000E0108888180000000FA7
:10427000112020110E0000380808C838080000007E
:10428000003F000000000070880808887000001CD3
:10429000222121221C0000E010080810E00000008C
:1042A000312222110F00000000C0C00000000000F9
:1042B000003030000000000000800000000000001E
:1042C0008060000000000000804020100800000115
:1042D00002040810200040404040404040000404D8
:1042E00004040404040000081020408000000020A2
:1042F000100804020100007048080808F0000000DF
:10430000003036010000C030C828E810E00007186F
:10431000272423140B000000C038E0000000203CDC
:1043200023020227382008F8888888700000203F80
:10433000202020110E00C030080808083800071897
:1043400020202010080008F808080810E000203F8E
:10435000202020100F0008F88888E8081000203F6F
:1043600020202320180008F88888E8081000203F43
:10437000200003000000C0300808083800000718BB
:104380002020221E020008F808000008F808203F3C
:10439000210101213F20000808F808080000002042
:1043A000203F2020000000000808F8080800C08016
:1043B00080807F00000008F888C028180800203F8F
:1043C00020012638200008F8080000000000203FE7
:1043D00020202020300008F8F800F8F80800203FDE
:1043E000003F003F200008F830C00008F808203FD8
:1043F000200007183F00E01008080810E0000F1028
:10440000202020100F0008F808080808F000203FBE
:10441000210101010000E01008080810E0000F1859
:10442000242438504F0008F8888888887000203F7E
:104430002000030C3020007088080808380000387D
:10444000202121221C00180808F808081800000084
:10445000203F2000000008F808000008F808001FAE
:10446000202020201F000878880000C8380800009D
:1044700007380E010000F80800F80008F800033CB7
:104480000700073C0300081868808068180820307F
:104490002C03032C30200838C800C838080000005E
:1044A000203F2000000010080808C8380800203805
:1044B000262120201800000000FE02020200000059
:1044C000007F40404000000C30C0000000000000B1
:1044D00000010638C00000020202FE000000004099
:1044E00040407F00000000000402020204000000BF
:1044F00000000000000000000000000000008080BC
:1045000080808080808000020204000000000000A3
:104510000000000000000000808080800000001982
:10452000242222223F2008F8008080000000003F63
:10453000112020110E000000008080800000000E7D
:10454000112020201100000000808088F800000E5B
:10455000112020103F200000808080800000001F7C
:10456000222222221300008080F0888888180020F0
:10457000203F202000000000808080808000006BB1
:1045800094949493600008F8008080800000203F9D
:10459000210000203F2000809898000000000020AB
:1045A000203F20200000000000809898000000C0FC
:1045B0008080807F000008F8000080808000203F1D
:1045C00024022D302000000808F800000000002020
:1045D000203F202000008080808080808000203F5D
:1045E00020003F20003F8080008080800000203F2E
:1045F000210000203F200000808080800000001FFC
:10460000202020201F00808000808000000080FF8C
:10461000A12020110E000000008080808000000E8C
:10462000112020A0FF8080808000808080002020DA
:104630003F21200001000000808080808000003346
:10464000242424241900008080E0808000000000E1
:10465000001F202000008080000000808000001FDC
:10466000202020103F20808080000080808000017A
:104670000E300806010080800080008080800F30AE
:104680000C030C300F000080800080808000002030
:10469000312E0E312000808080000080808080815B
:1046A0008E701806010000808080808080000021CC
:1046B000302C2221300000000000807C020200002B
:1046C0000000003F404000000000FF00000000002C
:1046D0000000FF0000000002027C8000000000409B
:1046E000403F00000000000000000000808000004B
:1046F0000000000001010000184700080000002031
:104700003C000000C03E0008544700083C00002068
:1047100054040000D03E000800A24A04000000003B
:104720000000000001020304060708090000000061
:104730000102030401020304060708090204060833
:104740000000000000000000000000000000000069
:044750000000000065
:0400000508000131BD
:00000001FF
