:020000040800F2
:10000000E007002089010008390200083B020008CF
:100010003F020008430200084702000800000000F9
:100020000000000000000000000000004B0200087B
:100030004D020008000000004F02000851020008B5
:10004000A3010008A3010008A3010008A301000800
:10005000A3010008A3010008A3010008A3010008F0
:10006000A3010008A3010008A3010008A3010008E0
:10007000A3010008C5230008A3010008A30100088C
:10008000A3010008A3010008A3010008A3010008C0
:10009000A3010008A3010008A3010008A3010008B0
:1000A000A3010008732B0008A3010008A3010008A6
:1000B000A3010008A3010008A3010008A301000890
:1000C000A3010008A3010008A3010008A301000880
:1000D000A3010008CD050008D1260008A3010008EF
:1000E000A3010008A3010008A301000800F002F822
:1000F00000F03AF80AA090E8000C82448344AAF188
:100100000107DA4501D100F02FF8AFF2090EBAE885
:100110000F0013F0010F18BFFB1A43F0010318473B
:10012000E42F000004300000103A24BF78C878C1E2
:10013000FAD8520724BF30C830C144BF04680C60ED
:10014000704700000023002400250026103A28BF35
:1001500078C1FBD8520728BF30C148BF0B60704739
:100160001FB51FBD10B510BD02F0E3FD1146FFF72E
:10017000F7FF00F029F802F001FE03B4FFF7F2FFE9
:1001800003BC00F0C5F90000094880470948004752
:10019000FEE7FEE7FEE7FEE7FEE7FEE7FEE7FEE737
:1001A000FEE7FEE704480549054A064B7047000094
:1001B00033030008ED000008E0010020E007002004
:1001C000E0030020E003002000F038F94FF4A060C5
:1001D00000F042FA02F08AF802F024FA02F06AF81B
:1001E00002F038FC4FF47A6002F076FC4FF47A703B
:1001F00000F061F94FF4FA6002F06EFC4FF4FA601F
:1002000000F059F940F6B83000F055F902F07CFCE6
:100210000CE007480068052808D100200449086060
:1002200004480068012801D102F0FFFCF1E700005A
:10023000040000200C000020704700BFFEE700BF54
:10024000FEE700BFFEE700BFFEE77047704770475C
:10025000704700000CB50020019000906C480068C9
:1002600040F480306A49086000BF6948006800F4C3
:10027000003000900198401C0190009818B9019836
:10028000B0F5A06FF1D16248006800F4003010B101
:100290000120009001E0002000900098012843D147
:1002A0005C48006840F010005A4908600846006841
:1002B00020F0030008600846006840F00200086073
:1002C00053484068524948600846406848600846BC
:1002D000406840F4806048600846406820F47C1024
:1002E00048600846406840F4981048600846006836
:1002F00040F08070086000BF4548006800F0007062
:100300000028F9D04248406820F003004049486086
:100310000846406840F00200486000BF3C48406822
:1003200000F00C000828F9D10CBD10B5FFF792FFC2
:1003300010BD10B53648006840F00100344908602F
:10034000084640683449084031494860084600681A
:10035000324908402E4908600846006820F4802091
:1003600008600846406820F4FE0048604FF41F0013
:100370008860FFF7DAFF4FF000602949086010BD80
:1003800010B5002100200022214B5B6803F00C0116
:1003900021B1042906D0082928D107E0214B224C9D
:1003A000236027E0214B204C236023E0184B5B683F
:1003B00003F47010164B5B6803F48032022303EBE6
:1003C000904022B91A4B4343174C23600DE0104B69
:1003D0005B6803F4003323B1164B4343124C236094
:1003E00003E0124B4343104C236003E00D4B0E4CD3
:1003F000236000BF00BF064B5B68C3F303130E4CC2
:10040000E15C094B1B68CB40074C236010BD00002A
:1004100000100240002002400000FFF8FFFFF6FE3F
:1004200008ED00E000127A001400002000366E0192
:1004300000093D00001BB7001800002010B56FF048
:10044000040000F058F92E4800682E49B0FBF1F086
:100450002D4908700846007800EB4001C1EBC01040
:100460004FF6FF7101EAC0002849088010BD01461F
:10047000254A12784A434FF0E0235A6100229A61DC
:100480001A46126942F001021A6100BF4FF0E022E1
:10049000106900F001021AB100F48032002AF5D090
:1004A0004FF0E022126922F001024FF0E0231A61BE
:1004B00000229A6170470146144A12884A434FF05D
:1004C000E0235A6100229A611A46126942F0010241
:1004D0001A6100BF4FF0E022106900F001021AB16A
:1004E00000F48032002AF5D04FF0E022126922F0A9
:1004F00001024FF0E0231A6100229A617047000068
:100500001400002000127A00280000202A00002099
:10051000014600BF704700BF4B4A128802F04002FC
:10052000002AF9D0C2B2484B1B1D1A80704710B583
:1005300086B00446012144F2040000F041FD424827
:1005400001F0B4FC4FF40070ADF8140003208DF8F6
:10055000160018208DF8170005A93C4800F074FA21
:100560004FF48060ADF8140004208DF8170005A941
:10057000364800F069FA25208DF8000003208DF838
:1005800001008DF8020001208DF80300684600F09C
:1005900068F801940020ADF80800ADF80A00ADF845
:1005A0000C00ADF810000C20ADF80E0001A9264893
:1005B00001F0BFFC012240F22551234801F051FD1A
:1005C0000121214801F041FD06B010BD10B540F2F7
:1005D00025511D4801F02AFE10B31B4801F0A6FD6D
:1005E000C4B21B48008800F40040C8B9184800880D
:1005F00000F4804060B10A2C03D000201449088028
:1006000020E01348008840F400401149088019E0B8
:100610000D2C06D10E48008840F480400C4908801B
:1006200010E00B480088C0F30D000A490C5408483C
:100630000088401C0649088008460088C72801DD5C
:100640000020088010BD0000003801400008014073
:10065000300000207700002031490143314A116009
:10066000704770B5002100230F22C47804B32D4CCD
:10067000246804F4E064C4F5E064210AC1F10403D1
:10068000CA40447804FA03F18478144021430901F4
:10069000254C0678A155047804F01F050124AC40D0
:1006A00005786D11AD0005F1E025C5F8004109E0C0
:1006B000047804F01F050124AC401C4D0678761127
:1006C00045F8264070BD1A4A0A400243154B1B1FCD
:1006D0001A60704739B1134A121D12680243114B58
:1006E0001B1D1A6006E00F4A121D126882430D4B53
:1006F0001B1D1A607047042808D14FF0E0210969DA
:1007000041F004014FF0E022116107E04FF0E021D9
:10071000096921F004014FF0E022116170470000E7
:100720000000FA050CED00E000E400E080E100E0EC
:1007300080FFFF1F01684FF6FE721140016000212B
:10074000016041608160C1608D49884208D18C4957
:100750000839496841F00F01894A083A51608AE036
:1007600087491431884208D185490839496841F0E0
:10077000F001834A083A51607DE08149283188427E
:1007800008D17F490839496841F470617C4A083AC8
:10079000516070E07A493C31884208D17849083983
:1007A000496841F47041764A083A516063E07449FF
:1007B0005031884208D172490839496841F47021A2
:1007C0006F4A083A516056E06D496431884208D159
:1007D0006B490839496841F47001694A083A516027
:1007E00049E067497831884208D165490839496844
:1007F00041F07061624A083A51603CE061498842C8
:1008000006D1011F096841F00F01021F116032E09B
:100810005C491431884208D15A49091F096841F0DE
:10082000F001584A121F116025E0564928318842CC
:1008300008D15449091F096841F47061514A121FD7
:10084000116018E04F493C31884208D14D49091FD9
:10085000096841F470414B4A121F11600BE049498D
:100860005031884207D14749091F096841F4702176
:10087000444A121F1160704710B50022026847F603
:10088000F0739A430C6A8B6823430C6923434C69C9
:1008900023438C692343CC6923434C6A23438C6AEA
:1008A00023431A430260CB6843600B6883604B6844
:1008B000C36010BD0021016041608160C1600161C1
:1008C00041618161C161016241628162704721B110
:1008D000026842F00102026004E002684FF6FE7313
:1008E0001A40026070471AB103680B43036002E0CC
:1008F00003688B4303607047416070470146486856
:1009000080B2704701460020002201F080531BB1E5
:100910001C4B083B1A6802E0194B083B1A6802EAB4
:1009200001030BB1012000E00020704700F080516E
:1009300019B11449091F086002E0114908394860DB
:10094000704701460020002201F080531BB10D4B7F
:10095000083B1A6802E00A4B083B1A6802EA0103E6
:100960000BB1012000E00020704700F0805119B168
:100970000449091F086002E00149083948607047CE
:10098000080002400804024010B50446CC488442E6
:1009900008D10121042000F02DFB0021042000F0EB
:1009A00029FB46E0C748844208D10121082000F015
:1009B00021FB0021082000F01DFB3AE0C2488442E0
:1009C00008D10121102000F015FB0021102000F0BB
:1009D00011FB2EE0BD48844208D10121202000F007
:1009E00009FB0021202000F005FB22E0B8488442EA
:1009F00008D10121402000F0FDFA0021402000F044
:100A0000F9FA16E0B348844208D10121802000F0B1
:100A1000F1FA0021802000F0EDFA0AE0AE488442AD
:100A200007D10121801500F0E5FA0021A01500F0A2
:100A3000E1FA10BD10B50121084600F0DBFA0021F3
:100A4000012000F0D7FA10BD2DE9F0410246002543
:100A50000026002000230024002791F803C00CF09A
:100A60000F0591F803C00CF0100CBCF1000F03D07F
:100A700091F802C04CEA050591F800C0BCF1000FE6
:100A800031D0146800202BE04FF0010C0CFA00F379
:100A9000B1F800C00CEA03069E4220D183004FF05B
:100AA0000F0C0CFA03F7BC4305FA03FC4CEA0404F0
:100AB00091F803C0BCF1280F06D14FF0010C0CFADD
:100AC00000FCC2F814C00AE091F803C0BCF1480F62
:100AD00005D14FF0010C0CFA00FCC2F810C0401C0C
:100AE0000828D1D31460B1F800C0BCF1FF0F34DD89
:100AF000546800202EE000F1080C4FF0010808FABD
:100B00000CF3B1F800C00CEA03069E4221D1830029
:100B10004FF00F0C0CFA03F7BC4305FA03FC4CEA48
:100B2000040491F803C0BCF1280F05D100F1080CB2
:100B300008FA0CF8C2F8148091F803C0BCF1480F11
:100B400007D100F1080C4FF0010808FA0CF8C2F8C0
:100B50001080401C0828CED35460BDE8F0814FF6C9
:100B6000FF710180022181700421C170704702462B
:100B7000002093680B400BB1012000E0002070477B
:100B80000146886880B2704702460020D3680B4057
:100B90000BB1012000E0002070470146C86880B218
:100BA000704701617047416170470AB1016100E01F
:100BB00041617047C16070474FF480320A438261DF
:100BC0008161826182698269704702460020434BDD
:100BD00018684FF68073184040EA021008433F4BF4
:100BE000186070473E49C8617047F0B50A46002357
:100BF00000240021002500F00046B6F1004F02D18C
:100C0000364EF16901E0354E7168C0F3034583B299
:100C100000F44016B6F5401F08D121F070612F4E48
:100C2000766826F070662D4F7E6012E000F4801624
:100C3000B6F5801F06D1032606FA05F4A14341F05C
:100C4000706106E0460D360103FA06F6B14341F045
:100C5000706122B1460D360103FA06F6314300F009
:100C60000046B6F1004F02D11C4EF16101E01B4E6F
:100C70007160F0BD30B500228B071C0F0F2303FA03
:100C800004F2164B08338C1053F824309343134C62
:100C900008348D1044F8253023468C1053F8243046
:100CA0008C07240F00FA04F423430C4C08348D10F5
:100CB00044F8253030BD0A49DC3108607047000037
:100CC00000080140000C01400010014000140140E8
:100CD00000180140001C01400020014000000140BC
:100CE00000002042DF48006840F00100DD49086054
:100CF00008464068DC490840DA4948600846006810
:100D0000DA490840D74908600846006820F4802086
:100D100008600846406820F4FE0048604FF41F0059
:100D200088607047CF49096821F48031CD4A11604D
:100D30001146096821F480211160B0F5803F03D08D
:100D4000B0F5802F0ED106E0C649096841F4803124
:100D5000C44A116007E0C349096841F4A021C14AAF
:100D6000116000E000BF00BF704710B501460022CF
:100D7000002300204A11012A02D1BA4C236806E060
:100D8000022A02D1B74C236A01E0B64C636A01F033
:100D90001F02012494401C400CB1012000E00020FF
:100DA00010BD38B5002000900024002500BF312080
:100DB000FFF7DBFF05460098401C00900098B0F557
:100DC000A06F01D0002DF2D03120FFF7CEFF08B187
:100DD000012400E00024204638BD01460020A14A3D
:100DE000106820F0F80040EAC10010607047A04988
:100DF00008607047024600209A4B586820F47C1027
:100E000042EA01031843974B5860704798490866B7
:100E1000704701460020934A506820F003000843C1
:100E2000506070478F48406800F00C0070470146E2
:100E300000208C4A506820F0F00008435060704752
:100E400001460020874A506820F4E0600843506063
:100E5000704701460020834A506820F4605040EA01
:100E6000C1005060704729B17E4A527A02437D4BDF
:100E70005A7204E07B4A527A82437A4B5A72704724
:100E80007B49D8310860704701460020754A506898
:100E900020F440400843506070470021714A2032DE
:100EA0001170704A82F82010012802D004280AD15B
:100EB00004E001216B4A2032117005E00521694AE6
:100EC0002032117000E000BF00BF70476949086020
:100ED00070476449096A0143624A11627047654973
:100EE00044390860704730B50021002200240023F7
:100EF0005C4D6D6805F00C0121B1042905D008296D
:100F000023D105E05C4D056022E05C4D05601FE0EB
:100F1000544D6D6805F47012524D6D6805F48034BF
:100F2000022505EB92421CB9554D554305600BE077
:100F30004C4D6D6805F400351DB1524D55430560AB
:100F400002E04E4D5543056002E04B4D056000BF89
:100F500000BF444D6D6805F0F00109094A4D6B5C16
:100F60000568DD4045603F4D6D6805F4E061090AA4
:100F7000454D6B5C4568DD4085603A4D6D6805F414
:100F80006051C90A404D6B5C4568DD40C560354D18
:100F90006D6805F44041890B3C4D6B5CC568B5FB41
:100FA000F3F5056130BD29B12E4A526902432D4B3C
:100FB0005A6104E02B4A526982432A4B5A617047B6
:100FC00029B1284A92690243264B9A6104E0254AD6
:100FD00092698243234B9A61704729B1214AD269B1
:100FE0000243204BDA6104E01E4AD26982431D4B62
:100FF000DA61704729B11B4AD2680243194BDA60A3
:1010000004E0184AD2688243164BDA60704729B16F
:10101000144A12690243134B1A6104E0114A12691F
:101020008243104B1A61704712494039086070477B
:101030000F49C86470470B49C87170470948406A36
:1010400040F0807007494862704701460020054A19
:1010500092680A400AB1012000E00020704701496F
:1010600088727047001002400000FFF8FFFFF6FE94
:10107000000042428004424200127A0000366E01B3
:1010800000093D00001BB700320000204200002094
:1010900010B50446FE48844208D10121C014FFF770
:1010A000A9FF0021E014FFF7A5FFC4E0B4F1804FD1
:1010B00008D101210846FFF7AAFF00210120FFF710
:1010C000A6FFB8E0F348844208D101210220FFF7CF
:1010D0009EFF00210220FFF79AFFACE0EE48844219
:1010E00008D101210420FFF792FF00210420FFF71F
:1010F0008EFFA0E0E948844208D101210820FFF7D3
:1011000086FF00210820FFF782FF94E0E448844234
:1011100008D101211020FFF77AFF00211020FFF7EE
:1011200076FF88E0DF48844208D101212020FFF7C4
:101130006EFF00212020FFF76AFF7CE0DA4884423E
:1011400008D101214014FFF755FF00216014FFF77B
:1011500051FF70E0D548844209D10121C804FFF74E
:1011600049FF00214FF40020FFF744FF63E0D0481F
:10117000844209D101210805FFF73CFF00214FF40B
:101180008010FFF737FF56E0CA48844209D1012199
:101190004805FFF72FFF00214FF40010FFF72AFF4B
:1011A00049E0C548844208D101214020FFF72FFFC4
:1011B00000214020FFF72BFF3DE0C048844208D1CA
:1011C00001218020FFF723FF00218020FFF71FFF70
:1011D00031E0BB48844208D101218015FFF717FF99
:1011E0000021A015FFF713FF25E0B648844209D17E
:1011F00001210804FFF7FEFE00214FF48030FFF7C5
:10120000F9FE18E0B048844209D101214804FFF7F3
:10121000F1FE00214FF40030FFF7ECFE0BE0AB488D
:10122000844208D101218804FFF7E4FE00214FF435
:101230008020FFF7DFFE10BD00220288944B984209
:101240000ED0994B98420BD0B0F1804F08D0914B03
:10125000984205D0904B984202D0904B984204D1CE
:101260004FF68F731A404B881A438D4B984207D024
:101270008C4B984204D04FF6FF431A40CB881A4358
:1012800002808B8883850B880385814B98420BD025
:10129000854B984208D08B4B984205D08A4B984298
:1012A00002D08A4B984201D10B7A038601238382B4
:1012B000704770B5002400220023058C4FF6FE769F
:1012C00035400584028C8388048B4FF68F752C4043
:1012D000B51E2C400D882C43751E2A400D892A43CB
:1012E0004D882A436A4DA8420BD06F4DA84208D0C2
:1012F000744DA84205D0744DA84202D0734DA84247
:1013000013D14FF6F7752A404D892A434FF6FB75E6
:101310002A408D882A434FF6FF652B404FF6FF5534
:101320002B408D892B43CD892B4383800483CD882B
:101330008586028470BD70B5002400220023058CD0
:101340004FF6EF7635400584028C8388048B48F68F
:10135000FF752C404FF6FF452C400D884FF6FF7669
:1013600006EA05252C434FF6DF752A400D8906EA6B
:1013700005152A434D8806EA05152A43444DA8421F
:1013800002D0494DA8421DD14FF67F752A404D89A4
:101390004FF6FF7606EA05152A434FF6BF752A4039
:1013A0008D8806EA05152A434FF6FF352B404FF28C
:1013B000FF752B408D8906EA85052B43CD8906EA0A
:1013C00085052B4383800483CD880587028470BD07
:1013D00070B5002400220023058C4FF6FF663540CF
:1013E0000584028C8388848B4FF68F752C404FF6D2
:1013F000FC752C400D882C434FF6FF552A400D8973
:101400004FF6FF7606EA05252A434D8806EA0525AC
:101410002A431F4DA84202D0234DA8421DD14FF2AE
:10142000FF752A404D894FF6FF7606EA05252A43C7
:101430004FF6FF352A408D8806EA05252A434EF6E9
:10144000FF752B404DF6FF752B408D8906EA05157B
:101450002B43CD8906EA05152B4383808483CD88F1
:101460008587028470BD70B5002200230024058C9E
:101470004EF6FF7635400584038C8488828B48F6CF
:10148000FF752A404FF6FF452A400D8820E00000F6
:10149000002C01400004004000080040000C004007
:1014A000001000400014004000340140004C014096
:1014B000005001400054014000180040001C004052
:1014C000002000400040014000440140004801402D
:1014D0004FF6FF7606EA05252A434DF6FF752B40A9
:1014E0000D8906EA05352B434D8806EA05352B4361
:1014F000FA4DA84202D0FA4DA84208D14BF6FF752A
:101500002C408D894FF6FF7606EA85152C438480A2
:101510008283CD88A0F84050038470BD828B4FF247
:10152000FF331A408283828B4FF6FF7303EA012355
:101530001A4382837047F0B50C46154600220021FD
:101540000026078C4EF6FF7C07EA0C070784828B87
:10155000018C4FF6FF7707EA043640F6FF473A4022
:101560004FF6FF7707EA05273A434FF6FF7707EA7A
:1015700003373A43D94FB8420ED0D94FB8420BD0B7
:10158000B0F1804F08D0D74FB84205D0D64FB842FF
:1015900002D0D64FB84206D14DF6FF77394046F417
:1015A0008057394305E047F6FF57394044F48057E8
:1015B000394382830184F0BD828B4FF6F3731A4066
:1015C0008283828B0A4382837047F0B50C461546AE
:1015D000002200210026078C4FF6FF6C07EA0C075B
:1015E0000784828B018C4FF6FF7707EA04264FF6BB
:1015F0000C773A404FF6FF7707EA03172F433A4339
:10160000B64FB8420ED0B64FB8420BD0B0F1804FB3
:1016100008D0B44FB84205D0B34FB84202D0B34F50
:10162000B84206D14FF6FF57394046F48077394328
:1016300005E04FF2FF57394044F480773943828305
:101640000184F0BD028B4FF2FF331A400283028BFC
:101650004FF6FF7303EA01231A4302837047F0B584
:101660000C461546002200210026078C4FF6EF7C21
:1016700007EA0C070784028B018C4FF6FF7707EA15
:10168000041640F6FF473A404FF6FF7707EA033764
:101690003A434FF6FF7707EA05273A438F4FB842A0
:1016A0000ED08F4FB8420BD0B0F1804F08D08D4F85
:1016B000B84205D08C4FB84202D08C4FB84206D108
:1016C0004FF6DF77394046F01007394305E04FF613
:1016D0005F77394044F01007394302830184F0BD3D
:1016E000028B4FF6F3731A400283028B0A43028384
:1016F0007047F0B50C46154600220021068C4FF6C7
:10170000FE773E400684028B018C4FF60C76324009
:101710007E1C06EA03162E433243704EB0420ED0B2
:101720006F4EB0420BD0B0F1804F08D06D4EB0423A
:1017300005D06D4EB04202D06C4EB04206D14FF68D
:10174000FD76314044F00106314305E04FF6F57671
:10175000314044F00106314302830184F0BD70B58D
:1017600005460C465D4885420ED05D4885420BD04B
:10177000B5F1804F08D05B48854205D05A48854274
:1017800002D05A48854200D100E000BF208850B9FD
:101790002389A28861882846FFF7ABFFE1882846A5
:1017A000FFF79EFF25E0208804280AD12389A2881C
:1017B00061882846FFF753FFE1882846FFF742FF7C
:1017C00017E0208808280AD12389A2886188284642
:1017D000FFF7FBFEE1882846FFF7EEFE09E02389CC
:1017E000A28861882846FFF7A6FEE1882846FFF711
:1017F00095FE70BD2DE9F04105460C4600260127F7
:10180000608808B9022600E00026A088012801D1DE
:10181000022700E001272088A0B92389A2886188D7
:101820002846FFF766FFE1882846FFF759FF23891E
:101830003A4631462846FFF712FFE1882846FFF76F
:1018400001FF13E02389A28861882846FFF707FF7C
:10185000E1882846FFF7F6FE23893A4631462846B6
:10186000FFF747FFE1882846FFF73AFFBDE8F08120
:101870000A884B881A438B881A43CB881A430B89F2
:101880001A434B891A438B891A43A0F844207047A6
:101890004FF6FF71818000210180C180418001727B
:1018A00070470021018041808180C1800181418198
:1018B0008181C181704700210180418001218180A7
:1018C0000021C18001817047002101804180818019
:1018D000C18001814181818170470000002C01405D
:1018E000003401400004004000080040000C0040AB
:1018F00021B1028842F00102028004E002884FF622
:10190000FE731A400280704731B1B0F8442042F4AF
:101910000042A0F8442005E0B0F84420C2F30E02D3
:10192000A0F8442070471AB183890B43838102E0F9
:1019300083898B43838170478182704741EA020328
:10194000A0F8483070471AB183890B43838102E0C5
:1019500083898B438381704701894FF6F872114068
:10196000018170470A46002101894FF68F731940A3
:1019700011430181704730B504460D462946204683
:10198000FFF7F0FF208940F00700208130BD2DE9EE
:10199000F04104460D4616461F46602D06D13B46D3
:1019A000012231462046FFF75AFE05E03B46012260
:1019B00031462046FFF79DFE29462046FFF7D2FF1D
:1019C000208940F007002081BDE8F08130B50C4649
:1019D00000210189C9B24FF6FF7505EA03251543B9
:1019E00025432943018130BD2DE9F04105460E46CE
:1019F00017469846002443463A4631462846FFF7A4
:101A0000E5FF2C894FF6F870044044F007044FF6C8
:101A10008F70044044F070042C81BDE8F081F0B573
:101A200004460D4616461F463B463246294620468A
:101A3000FFF7CCFF208940F480402081F0BD018574
:101A4000828270470A46002101884FF68F73194041
:101A5000114301807047F0B50C4615461E46002123
:101A6000002200230189028B038C4FF6F87739405E
:101A700021434FF6FC473A4040F201173A434FF6F4
:101A8000DD773B404FF6FF7707EA06172F433B43CE
:101A9000018102830384F0BD0A460021018B4FF6C9
:101AA0008F7319401143018370470A460021018B4F
:101AB00048F6FF7319404FF6FF7303EA02231943F8
:101AC000018370470A460021818B4FF68F731940BE
:101AD0001143818370470A460021818B48F6FF73CA
:101AE00019404FF6FF7303EA0223194381837047BD
:101AF00021B1028842F08002028004E002884FF6A1
:101B00007F731A400280704721B1828842F004023C
:101B1000828004E082884FF6FB731A40828070470F
:101B200021B1828842F00802828004E082884FF668
:101B3000F7731A408280704721B1828842F0010217
:101B4000828004E082884FF6FE731A4082807047DC
:101B50000A460021018B4FF6F773194011430183A8
:101B600070470A460021018B4FF2FF7319404FF670
:101B7000FF7303EA02231943018370470A460021D9
:101B8000818B4FF6F77319401143818370470A46E2
:101B90000021818B4FF2FF7319404FF6FF7303EA68
:101BA00002231943818370470A460021018B4FF6B7
:101BB000FB7319401143018370470A460021018BD2
:101BC0004FF6FF3319404FF6FF7303EA0223194320
:101BD000018370470A460021818B4FF6FB73194041
:101BE0001143818370470A460021818B4FF6FF33F2
:101BF00019404FF6FF7303EA0223194381837047AC
:101C00000A460021018B4FF67F731940114301836F
:101C100070470A460021018BC1F30E014FF6FF7396
:101C200003EA02231943018370470A460021818B8E
:101C30004FF67F7319401143818370470A46002194
:101C4000818BC1F30E014FF6FF7303EA02231943A0
:101C5000818370470A460021018C4FF6FD731940BD
:101C60001143018470470A460021018C4FF6F77337
:101C700019401143018470470A460021018C4FF638
:101C8000DF7319404FF6FF7303EA0213194301840F
:101C900070470A460021018C4FF67F7319404FF6BA
:101CA000FF7303EA02131943018470470A460021B7
:101CB000018C4FF6FF5319404FF6FF7303EA0223DE
:101CC0001943018470470A460021018C4FF2FF73CB
:101CD00019404FF6FF7303EA02231943018470474A
:101CE0000A460021018C4DF6FF7319404FF6FF7331
:101CF00003EA023319430184704730B500230124FD
:101D00008C40A3B2048C9C430484048C02FA01F539
:101D1000ADB22C43048430BD30B5002304248C4084
:101D2000A3B2048C9C430484048C02FA01F5ADB286
:101D30002C43048430BD70B50346002000241846AF
:101D4000183001258D40ACB21D8CA5431D8409B10E
:101D5000082909D100EB6100056825F070050560D0
:101D60000568154305600EE00D1FC5F34E052844B8
:101D7000056825F4E045056005684FF6FF7606EA3C
:101D800002263543056070BD21B1028842F002028F
:101D9000028004E002884FF6FD731A40028070470B
:101DA00021B1028842F00402028004E002884FF66A
:101DB000FB731A400280704721B1828842F0800292
:101DC000828004E082884FF67F731A4082807047D9
:101DD00002884FF6F7731A40028002880A43028095
:101DE000704782884FF68F731A40828082880A4338
:101DF0008280704702894FF6F8731A400281028987
:101E00000A430281704702894FF67F731A400281AC
:101E100002890A4302817047818470478185704737
:101E2000818670470187704781877047A0F840100E
:101E3000704702884FF6FF431A40028002880A4327
:101E4000028070470146888E70470146088F7047B0
:101E50000146888F70470146B1F84000704701463F
:101E6000888C70470146088D704702460020138A0F
:101E70000B400BB1012000E000207047CA430282F2
:101E8000704730B50246002000230024158A05EA79
:101E90000103958905EA010413B10CB1012000E0AA
:101EA000002030BDCA4302827047000010B50446CE
:101EB000FB48844209D101218803FFF79BF80021E8
:101EC0004FF48040FFF796F832E0F648844209D19B
:101ED00001214804FFF79BF800214FF40030FFF781
:101EE00096F825E0F048844209D101218804FFF7E3
:101EF0008EF800214FF48020FFF789F818E0EB48B6
:101F0000844209D10121C804FFF781F800214FF470
:101F10000020FFF77CF80BE0E548844208D101215E
:101F20000805FFF774F800214FF48010FFF76FF8F1
:101F300010BD2DE9F04786B005460E460024A246A6
:101F400000BFA1460027B08900B100BF2F462C8AF0
:101F50004CF6FF700440F08804432C82AC894EF6A6
:101F6000F3100440B0883189084371890843044361
:101F7000AC81AC8A4FF6FF400440B0890443AC8288
:101F800001A8FEF7B0FFC648874202D1DDF810A0D5
:101F900001E0DDF80CA0A88900F4004040B10AEB94
:101FA000CA0000EB0A1031684900B0FBF1F807E005
:101FB0000AEBCA0000EB0A1031688900B0FBF1F8A7
:101FC0006420B8FBF0F004012009642101FB1089B2
:101FD000A88900F4004040B1322000EBC900B0FBFA
:101FE000F1F000F00700044308E0322000EB091094
:101FF0006421B0FBF1F000F00F0004432C8106B027
:10200000BDE8F0874FF41651016000218180C18046
:1020100001810C21418100218181704710B5024668
:102020000020108A4FF2FF0318400B884C8823438E
:102030008C882343CC8823431843108210BD002191
:10204000018041808180C180704721B1828942F442
:102050000052828104E082894DF6FF731A4082812A
:102060007047F0B50346002400260025002040F606
:102070006A17B94200D100BF1846C1F3421401F0FB
:102080001F06012707FA06F5012C01D10C3004E0E8
:10209000022C01D1103000E014301AB107682F4330
:1020A000076002E00768AF430760F0BD1AB1838A9A
:1020B0000B43838202E0838A8B4383827047028AC8
:1020C0004FF6F0731A400282028A0A430282704776
:1020D00082894FF2FF731A40828182890A4382818A
:1020E000704721B1828942F00202828104E0828934
:1020F0004FF6FD731A4082817047028A4FF6DF73F4
:102100001A400282028A0A430282704721B1028A7F
:1021100042F48042028204E0028A4BF6FF731A40C6
:1021200002827047C1F308028280704701468888A6
:10213000C0F308007047818941F001018181704737
:10214000028BD2B20283028B42EA012202837047E1
:10215000028B02F47F420283028B0A4302837047A0
:1021600021B1828A42F02002828204E0828A4FF604
:10217000DF731A408282704721B1828A42F01002D6
:10218000828204E0828A4FF6EF731A40828270479F
:1021900021B1828A42F00802828204E0828A4FF6EC
:1021A000F7731A408282704721B1828942F400425B
:1021B000828103E08289C2F30E028281704721B1DD
:1021C000828A42F40062828204E0828A4FF2FF73C4
:1021D0001A4082827047828A4FF6FB731A408282CD
:1021E000828A0A438282704721B1828A42F00202C7
:1021F000828204E0828A4FF6FD731A408282704721
:1022000002460020B1F5007F00D100BF13880B40CB
:102210000BB1012000E00020704701F40072B2F51C
:10222000007F00D100BFCA430280704770B50246EC
:10223000002400230025002040F66A16B14200D198
:1022400000BFC1F3421501F01F03012606FA03F394
:10225000012D02D19689334006E0022D02D1168A63
:10226000334001E0968A33400C12012606FA04F44A
:102270001688344013B10CB1012000E0002070BD7D
:1022800010B50022002340F66A14A14200D100BF1D
:102290000A1201249440A3B2DC43048010BD000064
:1022A000003801400044004000480040004C00401D
:1022B0000050004008B501210820FEF781FE4FF4D0
:1022C0002040ADF8000010208DF8030003208DF8A9
:1022D000020069460448FEF7B7FB4FF4204102486C
:1022E000FEF75FFC08BD0000000C014000B591B096
:1022F00001218804FEF771FE01210820FEF760FE2F
:1023000001210846FEF74FFE4FF40060ADF8400093
:1023100004208DF8430010A9BB48FEF795FBBB488D
:102320000C900020ADF834004FF40050ADF83600AA
:10233000C010ADF838000020ADF83C000420ADF826
:102340003A000CA9B248FFF7F4FD0121B048FFF7AD
:102350007CFE0D208DF82C0000208DF82D008DF8CE
:102360002E0001208DF82F000BA8FEF77AF9A8485F
:10237000001D0090A74801900020029019200390B2
:1023800000200490802005900020069007902020D7
:1023900008904FF44050099000200A9069469E48EA
:1023A000FEF76AFA01219C48FEF791FA0122022108
:1023B0009948FEF798FA012240219548FFF776FEEA
:1023C00011B000BD10B54FF40070FEF79BFA012864
:1023D0007ED14002FEF7AAFA4FF40070FEF7C5FA6C
:1023E00001208E4908608B4800788D490870894823
:1023F000007E81F82200084600780F2869D108463F
:1024000090F822000028F9D18248407881498978E3
:1024100040EA0120C0F30A008149A1F801007D488B
:102420008078C0107B49C97840EA4110C0F30A01A6
:102430007B48A0F803107748C07880117549097966
:1024400040EA81007349497940EA8120C0F30A01DA
:102450007348A0F805106F48407940106D4989799C
:1024600040EAC110C0F30A016D48A0F8071069489E
:10247000807900116749C97940EA0110C0F30A0167
:102480006748A0F809106348C079C0116149097A0A
:1024900040EA41005F49497A40EA4120C0F30A011D
:1024A0005F48A0F80B105B48407A80105949897A40
:1024B00040EA8110C0F30A015948A0F80D105548B0
:1024C000807A40115349C97A40EAC100544901E079
:1024D00095E06BE0A1F80F004E48007B4D49497B29
:1024E00040EA0120C0F30A014D48A0F81110494804
:1024F000407BC0104749897B40EA4110C0F30A0184
:102500004748A0F813104348807B80114149C97B9C
:1025100040EA81003F49097C40EA8120C0F30A017A
:102520003F48A0F815103B48007C40103949497CD1
:1025300040EAC110C0F30A013948A0F81710354825
:10254000407C00113349897C40EA0110C0F30A0144
:102550003348A0F819102F48807CC0112D49C97C40
:1025600040EA41002B49097D40EA4120C0F30A01BD
:102570002B48A0F81B102748007D80102549497D75
:1025800040EA8110C0F30A012548A0F81D10214837
:10259000407D40111F49897D40EAC1002049A1F8D2
:1025A0001F001C48C07D81F821002BE000201C4941
:1025B000A1F8010000211A48A0F80310A0F80510A6
:1025C000A0F80710A0F80910A0F80B10A0F80D1043
:1025D000A0F80F10A0F81110A0F81310A0F8151013
:1025E000A0F81710A0F81910A0F81B10A0F81D10E3
:1025F000A0F81F1000200A4981F8210002E0002005
:102600000649086010BD0000000C0140A0860100D2
:10261000004800405E000020300002400C00002016
:102620005B01002000B587B001214804FEF7D5FC0E
:1026300001210420FEF7C4FC01210846FEF7B3FC8B
:102640005C48FFF733FC0420ADF8180018208DF823
:102650001B0003208DF81A0006A95748FEF7F4F96D
:102660000820ADF8180004208DF81B0006A9524878
:10267000FEF7EAF94FF4E13002900020ADF80C00CB
:10268000ADF80E00ADF81000ADF814000C20ADF858
:10269000120002A94748FFF74CFC012240F22551E5
:1026A0004448FFF7DEFC01214248FFF7CEFC26201C
:1026B0008DF8040001208DF8050000208DF806003B
:1026C00001208DF8070001A8FDF7CBFF07B000BD82
:1026D00070B540F225513748FFF7A8FD002851D0CA
:1026E00040F225513348FFF7CBFD3248FFF71EFD7E
:1026F000C5B2CC2D05D13148007810B901202F4941
:1027000008702E480078012808D12D482D490978F5
:1027100045542C480078401C2A4908702948007804
:102720000E282FDB26480078CC2826D1002408E08C
:102730002348005D24490978084423490870601C37
:10274000C4B20D2CF4DB1E48407B1F490978884237
:102750000ED1002405E01A48005D1C490855601C94
:10276000C4B20E2CF7DB0120194908701949087012
:10277000002015490870114908700020114908709F
:102780000E49087070BD00BF028802F08002002A66
:10279000FAD08180704730B504460D46002305E02D
:1027A000E95C0448FFF7EFFF581CC3B2A342F7DB14
:1027B00030BD000000440040000801404A000020F5
:1027C0003F01002049000020480000204D0100206A
:1027D000460000204700002000B589B001210846CE
:1027E000FEF7EEFB01210846FEF7F7FB012104206E
:1027F000FEF7E6FB0320ADF820008DF8220018203C
:102800008DF8230008A9BC48FEF71EF92420ADF876
:1028100014000020ADF8160049F64040ADF818004D
:102820000020ADF81A008DF81C0005A94FF080407B
:10283000FEF702FD7020ADF804000120ADF806009F
:102840000020ADF808000220ADF80C000020ADF823
:102850000E004FF48070ADF810000020ADF81200AB
:1028600001A94FF08040FEF724FD01A94FF0804000
:10287000FEF761FD00204FF0804188860887012126
:102880008807FFF735F801218807FFF73DF809B001
:1028900000BD00B589B001210846FEF791FB01217A
:1028A0000420FEF79AFB01210820FEF789FB4FF474
:1028B0004070ADF8200003208DF8220018208DF81C
:1028C000230008A98D48FEF7BFF82420ADF81400B6
:1028D0000020ADF8160049F64040ADF81800002081
:1028E000ADF81A008DF81C0005A98548FEF7A4FC78
:1028F0007020ADF804000120ADF806000020ADF80E
:1029000008000220ADF80C000020ADF80E004FF4D6
:102910008070ADF810000020ADF8120001A97848D1
:10292000FEF756FD01A97648FEF79DFD002074498B
:102930003C310880091D088001217148FEF7D8FF4D
:1029400001216F48FEF7E0FF09B000BD00B589B076
:1029500001210846FEF734FB01210220FEF73DFB72
:1029600001210C20FEF72CFBC020ADF82000032035
:102970008DF8220018208DF8230008A95E48FEF784
:1029800063F80320ADF820008DF8220018208DF8A0
:10299000230008A95948FEF757F82420ADF8140081
:1029A0000020ADF8160049F64040ADF818000020B0
:1029B000ADF81A008DF81C0005A95248FEF73CFC42
:1029C0007020ADF804000120ADF806000020ADF83D
:1029D00008000220ADF80C000020ADF80E004FF406
:1029E0008070ADF810000020ADF8120001A9454834
:1029F000FEF75FFC01A94348FEF79DFC01A9414891
:102A0000FEF7E6FC01A93F48FEF72DFD00203D49F9
:102A100034310880091D0880091D0880091D0880BF
:102A200001213848FEF764FF01213648FEF76CFFAC
:102A300009B000BD00204FF08041888608873049EA
:102A40003C310880091D08802E4934310880091D59
:102A50000880704710B5FFF7BFFEFFF71AFFFFF7BA
:102A600075FFFFF7E7FF10BD00210AE030F81120E5
:102A7000B2F52F6F03DD4FF42F6220F811204A1CAE
:102A8000D1B20629F2DB00210AE030F81120B2F5BC
:102A9000FA6F03DA4FF4FA6220F811204A1CD1B21F
:102AA0000629F2DB30F8022B4FF080439A8630F88B
:102AB000022B1A8730F8022B114B3C331A8030F866
:102AC000022B1B1D1A8030F8022B0E4B34331A8058
:102AD00002881B1D1A8070474FF080418886088746
:102AE00007493C310880091D0880064934310880B7
:102AF000091D08807047000000080140000C0140DB
:102B000000080040000400401FB53748FEF7C0FA37
:102B10000121C802FEF754FA6420ADF8040040F227
:102B2000CF20ADF800000020ADF80600ADF802009F
:102B300069462D48FEF780FB01212B48FFF79EF9DF
:102B400019208DF80C0002208DF80D0000208DF862
:102B50000E0001208DF80F0003A8FDF782FD012271
:102B600011462148FEF7DFFE01211F48FEF7C0FE97
:102B70001FBD10B501211C48FFF783F998B301214F
:102B80001948FFF78FF919480068401C1749086079
:102B900017480068401C1649086016480068401C29
:102BA000144908601148006802281CD100200F4910
:102BB000086011480078012805D11048FFF754FF3C
:102BC00000200D4908700E480078012803D1410308
:102BD0000C48FDF7E8FF0C480068012803D1C10349
:102BE0000848FDF7E0FF10BD002C01400000002068
:102BF0000400002008000020460000204E010020B4
:102C000047000020000C01400C0000200246002A72
:102C100005DD531A18B2002806DA002004E0531824
:102C200018B2002800DD002070472DE9F047002091
:102C300039494874AA200870BB2048703748B0F85A
:102C40000900B0F5997F01D1002088703348B0F8B1
:102C50000900B0F57A7F02D101202F4988702F48F2
:102C6000B0F8090040F29E61884202D102202A4950
:102C700088702A48B0F80500C0F5FA602649A1F826
:102C800003002648B0F80300A0F57A7005B20A21C7
:102C90002846FFF7BBFF814600F03CF980462049FB
:102CA00000F076F807461F4900F060F91A49C1F8AC
:102CB00005001A48B0F80100C0F57A7006B20A2182
:102CC0003046FFF7A3FF814600F024F980461449FF
:102CD00000F05EF80746134900F048F90E49C1F8C4
:102CE00009000E49B1F8070000F02CF90A49C1F8B3
:102CF0000D00002408E00848407C0749095D0844AD
:102D000005494874601CC4B2112CF4D30249122046
:102D1000FFF741FDBDE8F0874C0000205B0100207B
:102D200000802C440000C8417047704770477047CE
:102D30007047754600F028F8AE46050069465346D0
:102D400020F00700854618B020B5FDF72BFABDE846
:102D500020404FF000064FF000074FF000084FF002
:102D6000000B21F00701AC46ACE8C009ACE8C00993
:102D7000ACE8C009ACE8C0098D4670470446AFF323
:102D800000802046FDF7F9F90048704780010020D7
:102D90004FF47F0C1CEAD0121EBF1CEAD11392EA3A
:102DA0000C0F93EA0C0F00F0858090EA010F48BFEA
:102DB00042F4807240F4000C41F400002CF07F419A
:102DC00020F07F4000B58142A2EB03020FF2081C05
:102DD000ACEB504EC0F100009EF800E04FEA4E0E02
:102DE00000FB0EFC38BF49004FEA2C1C02F5FA022A
:102DF0000CFB0EF34FEACE1E4FEA112C4FEAC12115
:102E00000EEB635E42EB22420EFB0CFC4FEA1C53BE
:102E100000FB03114FEA112C4FEA01310EFB0CFCB1
:102E20004FEADC4C00FB0C11C14228BF09184CEBE7
:102E300003335DF804EB10EB410143EBC250B2F5F4
:102E40007C0F38BF704729D512F0F00F1CBF00F17E
:102E5000C04000F0004070470081828384858687EF
:102E600088898B8C8D8E8F919293959697999A9C49
:102E70009D9FA0A2A3A5A7A8AAACAEB0B2B3B5B7B8
:102E8000B9BCBEC0C2C5C7C9CCCED1D4D7D9DCDF8E
:102E9000E2E6E9ECF0F3F7FAFE0000004FEA400C3E
:102EA0000CF1807CBCF17E4F28BF7047B0F1C04070
:102EB00000F023B990EA010F0CEAD11348BF42F4A5
:102EC0008072624538BF634507D213F47F0F16D076
:102ED00080EA010000F00040704710B500F0C7F82C
:102EE000097EFC3E00F005B880EA010000F00040D9
:102EF000704780EA010000F0004000F0FEB812F4D4
:102F00007F0F04BF0248704780EA010000F0F5B867
:102F10000000C07F10F0004148BF4042B0FA80F38B
:102F200010FA03F2C3F19D030BD051EAC35101EB38
:102F30001220530638BF704700F1010008BF20F08F
:102F400001007047B0FA80F310FA03F2C3F19D0359
:102F50000AD0D90501EB1220530638BF704700F1A3
:102F6000010008BF20F00100704700004FF47F0C03
:102F70001CEAD0121EBF1CEAD11392EA0C0F93EA8E
:102F80000C0F00F0478090EA010F48BF42F48072B6
:102F90004FF0004C4CEA00204CEA012102EB030206
:102FA000A0FB0113A2F50002002918BF43F00103A2
:102FB0005B0028BF4FEA330342EB22425FEA132C47
:102FC0004CEBC2502EBFBCEB436FB2F57C0F704789
:102FD0004FEA036CBCF1004F08BF20F00100B2F5CE
:102FE0007C0F38BF70470BD582F0FF0212F5803F8F
:102FF000C8BF704700F1C040D8BF00F00040704724
:1030000000F5000C5FEA4C0C48BF7047B0F1C040BF
:1030100000F073B890EA010F0CEAD11348BF42F4F4
:103020008072624538BF634504D280EA010000F037
:103030000040704710B500F01AF800BF8900013E4B
:1030400000F007B800F009B85FEA410C5FEA1C6CB9
:1030500008D080EA010000F050B85FEA400C5FEA57
:103060001C6CF6D14FF00040A0F5800070470EF1C7
:10307000020E2EF0030E5EF8044B244204D44FEAF5
:103080004102B2F17F4F11D84FEA4003B3F17F4FB5
:103090000CD80ED14FEAD07CB2F17F4F0CEB4C0C28
:1030A0000CF1020C08BF4CEBD17C04E04FF0080C93
:1030B00001E04FEAD17C0CEB4C0324FA03F404F05A
:1030C0000704B4F1040C06D20EEB840CBDE81040EA
:1030D0004CF0010C6047DFE80CF0070802024FF0EB
:1030E0000040A0F5800010BD0846420018BFD2F194
:1030F000807288BF00F0004010BDFF2141EAD0502F
:10310000C005704724310008000000204C0000007A
:1031100028010008703100084C00002094070000CE
:103120004401000800000000000000000000000052
:10313000000000000000000000A24A04000000009F
:103140000000000001020304060708090000000057
:103150000000000000000000000001020304010262
:103160000304060708090204060800000000000026
:04000005080000ED02
:00000001FF
